{
  "_format": "hh-sol-artifact-1",
  "contractName": "DownstreamCaller",
  "sourceName": "contracts/DownstreamCaller.sol",
  "abi": [
    {
      "anonymous": false,
      "inputs": [
        {
          "indexed": true,
          "internalType": "address",
          "name": "previousOwner",
          "type": "address"
        },
        {
          "indexed": true,
          "internalType": "address",
          "name": "newOwner",
          "type": "address"
        }
      ],
      "name": "OwnershipTransferred",
      "type": "event"
    },
    {
      "anonymous": false,
      "inputs": [
        {
          "indexed": true,
          "internalType": "address",
          "name": "destination",
          "type": "address"
        },
        {
          "indexed": false,
          "internalType": "uint256",
          "name": "index",
          "type": "uint256"
        },
        {
          "indexed": false,
          "internalType": "bytes",
          "name": "data",
          "type": "bytes"
        }
      ],
      "name": "TransactionFailed",
      "type": "event"
    },
    {
      "inputs": [
        {
          "internalType": "address",
          "name": "destination",
          "type": "address"
        },
        {
          "internalType": "bytes",
          "name": "data",
          "type": "bytes"
        }
      ],
      "name": "addTransaction",
      "outputs": [
        {
          "internalType": "uint256",
          "name": "",
          "type": "uint256"
        }
      ],
      "stateMutability": "nonpayable",
      "type": "function"
    },
    {
      "inputs": [],
      "name": "executeTransactions",
      "outputs": [],
      "stateMutability": "nonpayable",
      "type": "function"
    },
    {
      "inputs": [],
      "name": "owner",
      "outputs": [
        {
          "internalType": "address",
          "name": "",
          "type": "address"
        }
      ],
      "stateMutability": "view",
      "type": "function"
    },
    {
      "inputs": [
        {
          "internalType": "uint256",
          "name": "index",
          "type": "uint256"
        }
      ],
      "name": "removeTransaction",
      "outputs": [],
      "stateMutability": "nonpayable",
      "type": "function"
    },
    {
      "inputs": [],
      "name": "renounceOwnership",
      "outputs": [],
      "stateMutability": "nonpayable",
      "type": "function"
    },
    {
      "inputs": [
        {
          "internalType": "uint256",
          "name": "index",
          "type": "uint256"
        },
        {
          "internalType": "bool",
          "name": "enabled",
          "type": "bool"
        }
      ],
      "name": "setTransactionEnabled",
      "outputs": [],
      "stateMutability": "nonpayable",
      "type": "function"
    },
    {
      "inputs": [
        {
          "internalType": "uint256",
          "name": "",
          "type": "uint256"
        }
      ],
      "name": "transactions",
      "outputs": [
        {
          "internalType": "bool",
          "name": "enabled",
          "type": "bool"
        },
        {
          "internalType": "address",
          "name": "destination",
          "type": "address"
        },
        {
          "internalType": "bytes",
          "name": "data",
          "type": "bytes"
        }
      ],
      "stateMutability": "view",
      "type": "function"
    },
    {
      "inputs": [],
      "name": "transactionsSize",
      "outputs": [
        {
          "internalType": "uint256",
          "name": "",
          "type": "uint256"
        }
      ],
      "stateMutability": "view",
      "type": "function"
    },
    {
      "inputs": [
        {
          "internalType": "address",
          "name": "newOwner",
          "type": "address"
        }
      ],
      "name": "transferOwnership",
      "outputs": [],
      "stateMutability": "nonpayable",
      "type": "function"
    }
  ],
  "bytecode": "0x608060405234801561001057600080fd5b50600061001b61006a565b600080546001600160a01b0319166001600160a01b0383169081178255604051929350917f8be0079c531659141344cd1fd0a4f28419497f9722a3daafe3b4186f6b6457e0908290a35061006e565b3390565b610d3b8061007d6000396000f3fe608060405234801561001057600080fd5b50600436106100935760003560e01c8063715018a611610066578063715018a6146101ac5780638da5cb5b146101b457806391d4ec18146101d85780639ace38c2146101e0578063f2fde38b1461028e57610093565b8063069549bc14610098578063126e19be146100a257806346c3bd1f1461016a5780636e9dde9914610187575b600080fd5b6100a06102b4565b005b610158600480360360408110156100b857600080fd5b6001600160a01b0382351691908101906040810160208201356401000000008111156100e357600080fd5b8201836020820111156100f557600080fd5b8035906020019184600183028401116401000000008311171561011757600080fd5b91908080601f01602080910402602001604051908101604052809392919081815260200183838082843760009201919091525092955061050d945050505050565b60408051918252519081900360200190f35b6100a06004803603602081101561018057600080fd5b5035610653565b6100a06004803603604081101561019d57600080fd5b508035906020013515156107eb565b6100a06108b4565b6101bc610956565b604080516001600160a01b039092168252519081900360200190f35b610158610965565b6101fd600480360360208110156101f657600080fd5b503561096b565b604051808415158152602001836001600160a01b0316815260200180602001828103825283818151815260200191508051906020019080838360005b83811015610251578181015183820152602001610239565b50505050905090810190601f16801561027e5780820380516001836020036101000a031916815260200191505b5094505050505060405180910390f35b6100a0600480360360208110156102a457600080fd5b50356001600160a01b0316610a30565b6102bc610b28565b6000546001600160a01b0390811691161461030c576040805162461bcd60e51b81526020600482018190526024820152600080516020610ce6833981519152604482015290519081900360640190fd5b60005b60015481101561050a5760006001828154811061032857fe5b60009182526020909120600290910201805490915060ff16156105015780546001808301805460408051602060026101009685161587026000190190941693909304601f81018490048402820184019092528181526000956103f09590046001600160a01b03169390929091908301828280156103e65780601f106103bb576101008083540402835291602001916103e6565b820191906000526020600020905b8154815290600101906020018083116103c957829003601f168201915b5050505050610b2c565b9050806104ff5781546040805185815260208101828152600180870180546002610100938216158402600019019091160494840185905294046001600160a01b0316937f8091ecaaa54ebb82e02d36c2c336528e0fcb9b3430fc1291ac88295032b9c2639388939192906060830190849080156104ae5780601f10610483576101008083540402835291602001916104ae565b820191906000526020600020905b81548152906001019060200180831161049157829003601f168201915b5050935050505060405180910390a26040805162461bcd60e51b8152602060048201526012602482015271151c985b9cd858dd1a5bdb8811985a5b195960721b604482015290519081900360640190fd5b505b5060010161030f565b50565b6000610517610b28565b6000546001600160a01b03908116911614610567576040805162461bcd60e51b81526020600482018190526024820152600080516020610ce6833981519152604482015290519081900360640190fd5b6001600160a01b03831661057a57600080fd5b815161058557600080fd5b60018054604080516060810182528381526001600160a01b03808816602080840191825293830188815285870187556000969096528251600286027fb10e2d527612073b26eecdfd717e6a320cf44b4afac2b0732d9fcbe2b7fa0cf681018054935190941661010002610100600160a81b031992151560ff19909416939093179190911691909117825594518051949592949193610648937fb10e2d527612073b26eecdfd717e6a320cf44b4afac2b0732d9fcbe2b7fa0cf70192910190610b4f565b509195945050505050565b61065b610b28565b6000546001600160a01b039081169116146106ab576040805162461bcd60e51b81526020600482018190526024820152600080516020610ce6833981519152604482015290519081900360640190fd5b60015481106106f7576040805162461bcd60e51b8152602060048201526013602482015272696e646578206f7574206f6620626f756e647360681b604482015290519081900360640190fd5b600154600019018110156107a85760018054600019810190811061071757fe5b90600052602060002090600202016001828154811061073257fe5b6000918252602090912082546002928302909101805460ff191660ff9092161515919091178082558354610100600160a81b0319909116610100918290046001600160a01b031682021782556001808501805493946107a4948387019492938116159092026000190190911604610bcd565b5050505b60018054806107b357fe5b60008281526020812060026000199093019283020180546001600160a81b0319168155906107e46001830182610c42565b5050905550565b6107f3610b28565b6000546001600160a01b03908116911614610843576040805162461bcd60e51b81526020600482018190526024820152600080516020610ce6833981519152604482015290519081900360640190fd5b60015482106108835760405162461bcd60e51b8152600401808060200182810382526028815260200180610cbe6028913960400191505060405180910390fd5b806001838154811061089157fe5b60009182526020909120600290910201805460ff19169115159190911790555050565b6108bc610b28565b6000546001600160a01b0390811691161461090c576040805162461bcd60e51b81526020600482018190526024820152600080516020610ce6833981519152604482015290519081900360640190fd5b600080546040516001600160a01b03909116907f8be0079c531659141344cd1fd0a4f28419497f9722a3daafe3b4186f6b6457e0908390a3600080546001600160a01b0319169055565b6000546001600160a01b031690565b60015490565b6001818154811061097857fe5b6000918252602091829020600291820201805460018083018054604080516101009483161585026000190190921696909604601f810188900488028201880190965285815260ff84169750919092046001600160a01b03169492939092830182828015610a265780601f106109fb57610100808354040283529160200191610a26565b820191906000526020600020905b815481529060010190602001808311610a0957829003601f168201915b5050505050905083565b610a38610b28565b6000546001600160a01b03908116911614610a88576040805162461bcd60e51b81526020600482018190526024820152600080516020610ce6833981519152604482015290519081900360640190fd5b6001600160a01b038116610acd5760405162461bcd60e51b8152600401808060200182810382526026815260200180610c986026913960400191505060405180910390fd5b600080546040516001600160a01b03808516939216917f8be0079c531659141344cd1fd0a4f28419497f9722a3daafe3b4186f6b6457e091a3600080546001600160a01b0319166001600160a01b0392909216919091179055565b3390565b6000806040516020840160008286518360008a6187965a03f19695505050505050565b828054600181600116156101000203166002900490600052602060002090601f016020900481019282601f10610b9057805160ff1916838001178555610bbd565b82800160010185558215610bbd579182015b82811115610bbd578251825591602001919060010190610ba2565b50610bc9929150610c82565b5090565b828054600181600116156101000203166002900490600052602060002090601f016020900481019282601f10610c065780548555610bbd565b82800160010185558215610bbd57600052602060002091601f016020900482015b82811115610bbd578254825591600101919060010190610c27565b50805460018160011615610100020316600290046000825580601f10610c68575061050a565b601f01602090049060005260206000209081019061050a91905b5b80821115610bc95760008155600101610c8356fe4f776e61626c653a206e6577206f776e657220697320746865207a65726f2061646472657373696e646578206d75737420626520696e2072616e6765206f662073746f726564207478206c6973744f776e61626c653a2063616c6c6572206973206e6f7420746865206f776e6572a26469706673582212206443b814b415039cf5496137eb92d56b37ed4fda41b5a3737556c3097dd6a19a64736f6c634300060c0033",
  "linkReferences": {},
  "deployedLinkReferences": {}
}