{
    "contracts/DownstreamCaller.sol": {
        "DownstreamCaller": {
            "abi": [
                {
                    "anonymous": false,
                    "inputs": [
                        {
                            "indexed": true,
                            "internalType": "address",
                            "name": "previousOwner",
                            "type": "address"
                        },
                        {
                            "indexed": true,
                            "internalType": "address",
                            "name": "newOwner",
                            "type": "address"
                        }
                    ],
                    "name": "OwnershipTransferred",
                    "type": "event"
                },
                {
                    "anonymous": false,
                    "inputs": [
                        {
                            "indexed": true,
                            "internalType": "address",
                            "name": "destination",
                            "type": "address"
                        },
                        {
                            "indexed": false,
                            "internalType": "uint256",
                            "name": "index",
                            "type": "uint256"
                        },
                        {
                            "indexed": false,
                            "internalType": "bytes",
                            "name": "data",
                            "type": "bytes"
                        }
                    ],
                    "name": "TransactionFailed",
                    "type": "event"
                },
                {
                    "inputs": [
                        {
                            "internalType": "address",
                            "name": "destination",
                            "type": "address"
                        },
                        {
                            "internalType": "bytes",
                            "name": "data",
                            "type": "bytes"
                        }
                    ],
                    "name": "addTransaction",
                    "outputs": [
                        {
                            "internalType": "uint256",
                            "name": "",
                            "type": "uint256"
                        }
                    ],
                    "stateMutability": "nonpayable",
                    "type": "function"
                },
                {
                    "inputs": [],
                    "name": "executeTransactions",
                    "outputs": [],
                    "stateMutability": "nonpayable",
                    "type": "function"
                },
                {
                    "inputs": [],
                    "name": "owner",
                    "outputs": [
                        {
                            "internalType": "address",
                            "name": "",
                            "type": "address"
                        }
                    ],
                    "stateMutability": "view",
                    "type": "function"
                },
                {
                    "inputs": [
                        {
                            "internalType": "uint256",
                            "name": "index",
                            "type": "uint256"
                        }
                    ],
                    "name": "removeTransaction",
                    "outputs": [],
                    "stateMutability": "nonpayable",
                    "type": "function"
                },
                {
                    "inputs": [],
                    "name": "renounceOwnership",
                    "outputs": [],
                    "stateMutability": "nonpayable",
                    "type": "function"
                },
                {
                    "inputs": [
                        {
                            "internalType": "uint256",
                            "name": "index",
                            "type": "uint256"
                        },
                        {
                            "internalType": "bool",
                            "name": "enabled",
                            "type": "bool"
                        }
                    ],
                    "name": "setTransactionEnabled",
                    "outputs": [],
                    "stateMutability": "nonpayable",
                    "type": "function"
                },
                {
                    "inputs": [
                        {
                            "internalType": "uint256",
                            "name": "",
                            "type": "uint256"
                        }
                    ],
                    "name": "transactions",
                    "outputs": [
                        {
                            "internalType": "bool",
                            "name": "enabled",
                            "type": "bool"
                        },
                        {
                            "internalType": "address",
                            "name": "destination",
                            "type": "address"
                        },
                        {
                            "internalType": "bytes",
                            "name": "data",
                            "type": "bytes"
                        }
                    ],
                    "stateMutability": "view",
                    "type": "function"
                },
                {
                    "inputs": [],
                    "name": "transactionsSize",
                    "outputs": [
                        {
                            "internalType": "uint256",
                            "name": "",
                            "type": "uint256"
                        }
                    ],
                    "stateMutability": "view",
                    "type": "function"
                },
                {
                    "inputs": [
                        {
                            "internalType": "address",
                            "name": "newOwner",
                            "type": "address"
                        }
                    ],
                    "name": "transferOwnership",
                    "outputs": [],
                    "stateMutability": "nonpayable",
                    "type": "function"
                }
            ],
            "evm": {
                "bytecode": {
                    "linkReferences": {},
                    "object": "608060405234801561001057600080fd5b50600061001b61006a565b600080546001600160a01b0319166001600160a01b0383169081178255604051929350917f8be0079c531659141344cd1fd0a4f28419497f9722a3daafe3b4186f6b6457e0908290a35061006e565b3390565b610d3b8061007d6000396000f3fe608060405234801561001057600080fd5b50600436106100935760003560e01c8063715018a611610066578063715018a6146101ac5780638da5cb5b146101b457806391d4ec18146101d85780639ace38c2146101e0578063f2fde38b1461028e57610093565b8063069549bc14610098578063126e19be146100a257806346c3bd1f1461016a5780636e9dde9914610187575b600080fd5b6100a06102b4565b005b610158600480360360408110156100b857600080fd5b6001600160a01b0382351691908101906040810160208201356401000000008111156100e357600080fd5b8201836020820111156100f557600080fd5b8035906020019184600183028401116401000000008311171561011757600080fd5b91908080601f01602080910402602001604051908101604052809392919081815260200183838082843760009201919091525092955061050d945050505050565b60408051918252519081900360200190f35b6100a06004803603602081101561018057600080fd5b5035610653565b6100a06004803603604081101561019d57600080fd5b508035906020013515156107eb565b6100a06108b4565b6101bc610956565b604080516001600160a01b039092168252519081900360200190f35b610158610965565b6101fd600480360360208110156101f657600080fd5b503561096b565b604051808415158152602001836001600160a01b0316815260200180602001828103825283818151815260200191508051906020019080838360005b83811015610251578181015183820152602001610239565b50505050905090810190601f16801561027e5780820380516001836020036101000a031916815260200191505b5094505050505060405180910390f35b6100a0600480360360208110156102a457600080fd5b50356001600160a01b0316610a30565b6102bc610b28565b6000546001600160a01b0390811691161461030c576040805162461bcd60e51b81526020600482018190526024820152600080516020610ce6833981519152604482015290519081900360640190fd5b60005b60015481101561050a5760006001828154811061032857fe5b60009182526020909120600290910201805490915060ff16156105015780546001808301805460408051602060026101009685161587026000190190941693909304601f81018490048402820184019092528181526000956103f09590046001600160a01b03169390929091908301828280156103e65780601f106103bb576101008083540402835291602001916103e6565b820191906000526020600020905b8154815290600101906020018083116103c957829003601f168201915b5050505050610b2c565b9050806104ff5781546040805185815260208101828152600180870180546002610100938216158402600019019091160494840185905294046001600160a01b0316937f8091ecaaa54ebb82e02d36c2c336528e0fcb9b3430fc1291ac88295032b9c2639388939192906060830190849080156104ae5780601f10610483576101008083540402835291602001916104ae565b820191906000526020600020905b81548152906001019060200180831161049157829003601f168201915b5050935050505060405180910390a26040805162461bcd60e51b8152602060048201526012602482015271151c985b9cd858dd1a5bdb8811985a5b195960721b604482015290519081900360640190fd5b505b5060010161030f565b50565b6000610517610b28565b6000546001600160a01b03908116911614610567576040805162461bcd60e51b81526020600482018190526024820152600080516020610ce6833981519152604482015290519081900360640190fd5b6001600160a01b03831661057a57600080fd5b815161058557600080fd5b60018054604080516060810182528381526001600160a01b03808816602080840191825293830188815285870187556000969096528251600286027fb10e2d527612073b26eecdfd717e6a320cf44b4afac2b0732d9fcbe2b7fa0cf681018054935190941661010002610100600160a81b031992151560ff19909416939093179190911691909117825594518051949592949193610648937fb10e2d527612073b26eecdfd717e6a320cf44b4afac2b0732d9fcbe2b7fa0cf70192910190610b4f565b509195945050505050565b61065b610b28565b6000546001600160a01b039081169116146106ab576040805162461bcd60e51b81526020600482018190526024820152600080516020610ce6833981519152604482015290519081900360640190fd5b60015481106106f7576040805162461bcd60e51b8152602060048201526013602482015272696e646578206f7574206f6620626f756e647360681b604482015290519081900360640190fd5b600154600019018110156107a85760018054600019810190811061071757fe5b90600052602060002090600202016001828154811061073257fe5b6000918252602090912082546002928302909101805460ff191660ff9092161515919091178082558354610100600160a81b0319909116610100918290046001600160a01b031682021782556001808501805493946107a4948387019492938116159092026000190190911604610bcd565b5050505b60018054806107b357fe5b60008281526020812060026000199093019283020180546001600160a81b0319168155906107e46001830182610c42565b5050905550565b6107f3610b28565b6000546001600160a01b03908116911614610843576040805162461bcd60e51b81526020600482018190526024820152600080516020610ce6833981519152604482015290519081900360640190fd5b60015482106108835760405162461bcd60e51b8152600401808060200182810382526028815260200180610cbe6028913960400191505060405180910390fd5b806001838154811061089157fe5b60009182526020909120600290910201805460ff19169115159190911790555050565b6108bc610b28565b6000546001600160a01b0390811691161461090c576040805162461bcd60e51b81526020600482018190526024820152600080516020610ce6833981519152604482015290519081900360640190fd5b600080546040516001600160a01b03909116907f8be0079c531659141344cd1fd0a4f28419497f9722a3daafe3b4186f6b6457e0908390a3600080546001600160a01b0319169055565b6000546001600160a01b031690565b60015490565b6001818154811061097857fe5b6000918252602091829020600291820201805460018083018054604080516101009483161585026000190190921696909604601f810188900488028201880190965285815260ff84169750919092046001600160a01b03169492939092830182828015610a265780601f106109fb57610100808354040283529160200191610a26565b820191906000526020600020905b815481529060010190602001808311610a0957829003601f168201915b5050505050905083565b610a38610b28565b6000546001600160a01b03908116911614610a88576040805162461bcd60e51b81526020600482018190526024820152600080516020610ce6833981519152604482015290519081900360640190fd5b6001600160a01b038116610acd5760405162461bcd60e51b8152600401808060200182810382526026815260200180610c986026913960400191505060405180910390fd5b600080546040516001600160a01b03808516939216917f8be0079c531659141344cd1fd0a4f28419497f9722a3daafe3b4186f6b6457e091a3600080546001600160a01b0319166001600160a01b0392909216919091179055565b3390565b6000806040516020840160008286518360008a6187965a03f19695505050505050565b828054600181600116156101000203166002900490600052602060002090601f016020900481019282601f10610b9057805160ff1916838001178555610bbd565b82800160010185558215610bbd579182015b82811115610bbd578251825591602001919060010190610ba2565b50610bc9929150610c82565b5090565b828054600181600116156101000203166002900490600052602060002090601f016020900481019282601f10610c065780548555610bbd565b82800160010185558215610bbd57600052602060002091601f016020900482015b82811115610bbd578254825591600101919060010190610c27565b50805460018160011615610100020316600290046000825580601f10610c68575061050a565b601f01602090049060005260206000209081019061050a91905b5b80821115610bc95760008155600101610c8356fe4f776e61626c653a206e6577206f776e657220697320746865207a65726f2061646472657373696e646578206d75737420626520696e2072616e6765206f662073746f726564207478206c6973744f776e61626c653a2063616c6c6572206973206e6f7420746865206f776e6572a26469706673582212206443b814b415039cf5496137eb92d56b37ed4fda41b5a3737556c3097dd6a19a64736f6c634300060c0033",
                    "opcodes": "PUSH1 0x80 PUSH1 0x40 MSTORE CALLVALUE DUP1 ISZERO PUSH2 0x10 JUMPI PUSH1 0x0 DUP1 REVERT JUMPDEST POP PUSH1 0x0 PUSH2 0x1B PUSH2 0x6A JUMP JUMPDEST PUSH1 0x0 DUP1 SLOAD PUSH1 0x1 PUSH1 0x1 PUSH1 0xA0 SHL SUB NOT AND PUSH1 0x1 PUSH1 0x1 PUSH1 0xA0 SHL SUB DUP4 AND SWAP1 DUP2 OR DUP3 SSTORE PUSH1 0x40 MLOAD SWAP3 SWAP4 POP SWAP2 PUSH32 0x8BE0079C531659141344CD1FD0A4F28419497F9722A3DAAFE3B4186F6B6457E0 SWAP1 DUP3 SWAP1 LOG3 POP PUSH2 0x6E JUMP JUMPDEST CALLER SWAP1 JUMP JUMPDEST PUSH2 0xD3B DUP1 PUSH2 0x7D PUSH1 0x0 CODECOPY PUSH1 0x0 RETURN INVALID PUSH1 0x80 PUSH1 0x40 MSTORE CALLVALUE DUP1 ISZERO PUSH2 0x10 JUMPI PUSH1 0x0 DUP1 REVERT JUMPDEST POP PUSH1 0x4 CALLDATASIZE LT PUSH2 0x93 JUMPI PUSH1 0x0 CALLDATALOAD PUSH1 0xE0 SHR DUP1 PUSH4 0x715018A6 GT PUSH2 0x66 JUMPI DUP1 PUSH4 0x715018A6 EQ PUSH2 0x1AC JUMPI DUP1 PUSH4 0x8DA5CB5B EQ PUSH2 0x1B4 JUMPI DUP1 PUSH4 0x91D4EC18 EQ PUSH2 0x1D8 JUMPI DUP1 PUSH4 0x9ACE38C2 EQ PUSH2 0x1E0 JUMPI DUP1 PUSH4 0xF2FDE38B EQ PUSH2 0x28E JUMPI PUSH2 0x93 JUMP JUMPDEST DUP1 PUSH4 0x69549BC EQ PUSH2 0x98 JUMPI DUP1 PUSH4 0x126E19BE EQ PUSH2 0xA2 JUMPI DUP1 PUSH4 0x46C3BD1F EQ PUSH2 0x16A JUMPI DUP1 PUSH4 0x6E9DDE99 EQ PUSH2 0x187 JUMPI JUMPDEST PUSH1 0x0 DUP1 REVERT JUMPDEST PUSH2 0xA0 PUSH2 0x2B4 JUMP JUMPDEST STOP JUMPDEST PUSH2 0x158 PUSH1 0x4 DUP1 CALLDATASIZE SUB PUSH1 0x40 DUP2 LT ISZERO PUSH2 0xB8 JUMPI PUSH1 0x0 DUP1 REVERT JUMPDEST PUSH1 0x1 PUSH1 0x1 PUSH1 0xA0 SHL SUB DUP3 CALLDATALOAD AND SWAP2 SWAP1 DUP2 ADD SWAP1 PUSH1 0x40 DUP2 ADD PUSH1 0x20 DUP3 ADD CALLDATALOAD PUSH5 0x100000000 DUP2 GT ISZERO PUSH2 0xE3 JUMPI PUSH1 0x0 DUP1 REVERT JUMPDEST DUP3 ADD DUP4 PUSH1 0x20 DUP3 ADD GT ISZERO PUSH2 0xF5 JUMPI PUSH1 0x0 DUP1 REVERT JUMPDEST DUP1 CALLDATALOAD SWAP1 PUSH1 0x20 ADD SWAP2 DUP5 PUSH1 0x1 DUP4 MUL DUP5 ADD GT PUSH5 0x100000000 DUP4 GT OR ISZERO PUSH2 0x117 JUMPI PUSH1 0x0 DUP1 REVERT JUMPDEST SWAP2 SWAP1 DUP1 DUP1 PUSH1 0x1F ADD PUSH1 0x20 DUP1 SWAP2 DIV MUL PUSH1 0x20 ADD PUSH1 0x40 MLOAD SWAP1 DUP2 ADD PUSH1 0x40 MSTORE DUP1 SWAP4 SWAP3 SWAP2 SWAP1 DUP2 DUP2 MSTORE PUSH1 0x20 ADD DUP4 DUP4 DUP1 DUP3 DUP5 CALLDATACOPY PUSH1 0x0 SWAP3 ADD SWAP2 SWAP1 SWAP2 MSTORE POP SWAP3 SWAP6 POP PUSH2 0x50D SWAP5 POP POP POP POP POP JUMP JUMPDEST PUSH1 0x40 DUP1 MLOAD SWAP2 DUP3 MSTORE MLOAD SWAP1 DUP2 SWAP1 SUB PUSH1 0x20 ADD SWAP1 RETURN JUMPDEST PUSH2 0xA0 PUSH1 0x4 DUP1 CALLDATASIZE SUB PUSH1 0x20 DUP2 LT ISZERO PUSH2 0x180 JUMPI PUSH1 0x0 DUP1 REVERT JUMPDEST POP CALLDATALOAD PUSH2 0x653 JUMP JUMPDEST PUSH2 0xA0 PUSH1 0x4 DUP1 CALLDATASIZE SUB PUSH1 0x40 DUP2 LT ISZERO PUSH2 0x19D JUMPI PUSH1 0x0 DUP1 REVERT JUMPDEST POP DUP1 CALLDATALOAD SWAP1 PUSH1 0x20 ADD CALLDATALOAD ISZERO ISZERO PUSH2 0x7EB JUMP JUMPDEST PUSH2 0xA0 PUSH2 0x8B4 JUMP JUMPDEST PUSH2 0x1BC PUSH2 0x956 JUMP JUMPDEST PUSH1 0x40 DUP1 MLOAD PUSH1 0x1 PUSH1 0x1 PUSH1 0xA0 SHL SUB SWAP1 SWAP3 AND DUP3 MSTORE MLOAD SWAP1 DUP2 SWAP1 SUB PUSH1 0x20 ADD SWAP1 RETURN JUMPDEST PUSH2 0x158 PUSH2 0x965 JUMP JUMPDEST PUSH2 0x1FD PUSH1 0x4 DUP1 CALLDATASIZE SUB PUSH1 0x20 DUP2 LT ISZERO PUSH2 0x1F6 JUMPI PUSH1 0x0 DUP1 REVERT JUMPDEST POP CALLDATALOAD PUSH2 0x96B JUMP JUMPDEST PUSH1 0x40 MLOAD DUP1 DUP5 ISZERO ISZERO DUP2 MSTORE PUSH1 0x20 ADD DUP4 PUSH1 0x1 PUSH1 0x1 PUSH1 0xA0 SHL SUB AND DUP2 MSTORE PUSH1 0x20 ADD DUP1 PUSH1 0x20 ADD DUP3 DUP2 SUB DUP3 MSTORE DUP4 DUP2 DUP2 MLOAD DUP2 MSTORE PUSH1 0x20 ADD SWAP2 POP DUP1 MLOAD SWAP1 PUSH1 0x20 ADD SWAP1 DUP1 DUP4 DUP4 PUSH1 0x0 JUMPDEST DUP4 DUP2 LT ISZERO PUSH2 0x251 JUMPI DUP2 DUP2 ADD MLOAD DUP4 DUP3 ADD MSTORE PUSH1 0x20 ADD PUSH2 0x239 JUMP JUMPDEST POP POP POP POP SWAP1 POP SWAP1 DUP2 ADD SWAP1 PUSH1 0x1F AND DUP1 ISZERO PUSH2 0x27E JUMPI DUP1 DUP3 SUB DUP1 MLOAD PUSH1 0x1 DUP4 PUSH1 0x20 SUB PUSH2 0x100 EXP SUB NOT AND DUP2 MSTORE PUSH1 0x20 ADD SWAP2 POP JUMPDEST POP SWAP5 POP POP POP POP POP PUSH1 0x40 MLOAD DUP1 SWAP2 SUB SWAP1 RETURN JUMPDEST PUSH2 0xA0 PUSH1 0x4 DUP1 CALLDATASIZE SUB PUSH1 0x20 DUP2 LT ISZERO PUSH2 0x2A4 JUMPI PUSH1 0x0 DUP1 REVERT JUMPDEST POP CALLDATALOAD PUSH1 0x1 PUSH1 0x1 PUSH1 0xA0 SHL SUB AND PUSH2 0xA30 JUMP JUMPDEST PUSH2 0x2BC PUSH2 0xB28 JUMP JUMPDEST PUSH1 0x0 SLOAD PUSH1 0x1 PUSH1 0x1 PUSH1 0xA0 SHL SUB SWAP1 DUP2 AND SWAP2 AND EQ PUSH2 0x30C JUMPI PUSH1 0x40 DUP1 MLOAD PUSH3 0x461BCD PUSH1 0xE5 SHL DUP2 MSTORE PUSH1 0x20 PUSH1 0x4 DUP3 ADD DUP2 SWAP1 MSTORE PUSH1 0x24 DUP3 ADD MSTORE PUSH1 0x0 DUP1 MLOAD PUSH1 0x20 PUSH2 0xCE6 DUP4 CODECOPY DUP2 MLOAD SWAP2 MSTORE PUSH1 0x44 DUP3 ADD MSTORE SWAP1 MLOAD SWAP1 DUP2 SWAP1 SUB PUSH1 0x64 ADD SWAP1 REVERT JUMPDEST PUSH1 0x0 JUMPDEST PUSH1 0x1 SLOAD DUP2 LT ISZERO PUSH2 0x50A JUMPI PUSH1 0x0 PUSH1 0x1 DUP3 DUP2 SLOAD DUP2 LT PUSH2 0x328 JUMPI INVALID JUMPDEST PUSH1 0x0 SWAP2 DUP3 MSTORE PUSH1 0x20 SWAP1 SWAP2 KECCAK256 PUSH1 0x2 SWAP1 SWAP2 MUL ADD DUP1 SLOAD SWAP1 SWAP2 POP PUSH1 0xFF AND ISZERO PUSH2 0x501 JUMPI DUP1 SLOAD PUSH1 0x1 DUP1 DUP4 ADD DUP1 SLOAD PUSH1 0x40 DUP1 MLOAD PUSH1 0x20 PUSH1 0x2 PUSH2 0x100 SWAP7 DUP6 AND ISZERO DUP8 MUL PUSH1 0x0 NOT ADD SWAP1 SWAP5 AND SWAP4 SWAP1 SWAP4 DIV PUSH1 0x1F DUP2 ADD DUP5 SWAP1 DIV DUP5 MUL DUP3 ADD DUP5 ADD SWAP1 SWAP3 MSTORE DUP2 DUP2 MSTORE PUSH1 0x0 SWAP6 PUSH2 0x3F0 SWAP6 SWAP1 DIV PUSH1 0x1 PUSH1 0x1 PUSH1 0xA0 SHL SUB AND SWAP4 SWAP1 SWAP3 SWAP1 SWAP2 SWAP1 DUP4 ADD DUP3 DUP3 DUP1 ISZERO PUSH2 0x3E6 JUMPI DUP1 PUSH1 0x1F LT PUSH2 0x3BB JUMPI PUSH2 0x100 DUP1 DUP4 SLOAD DIV MUL DUP4 MSTORE SWAP2 PUSH1 0x20 ADD SWAP2 PUSH2 0x3E6 JUMP JUMPDEST DUP3 ADD SWAP2 SWAP1 PUSH1 0x0 MSTORE PUSH1 0x20 PUSH1 0x0 KECCAK256 SWAP1 JUMPDEST DUP2 SLOAD DUP2 MSTORE SWAP1 PUSH1 0x1 ADD SWAP1 PUSH1 0x20 ADD DUP1 DUP4 GT PUSH2 0x3C9 JUMPI DUP3 SWAP1 SUB PUSH1 0x1F AND DUP3 ADD SWAP2 JUMPDEST POP POP POP POP POP PUSH2 0xB2C JUMP JUMPDEST SWAP1 POP DUP1 PUSH2 0x4FF JUMPI DUP2 SLOAD PUSH1 0x40 DUP1 MLOAD DUP6 DUP2 MSTORE PUSH1 0x20 DUP2 ADD DUP3 DUP2 MSTORE PUSH1 0x1 DUP1 DUP8 ADD DUP1 SLOAD PUSH1 0x2 PUSH2 0x100 SWAP4 DUP3 AND ISZERO DUP5 MUL PUSH1 0x0 NOT ADD SWAP1 SWAP2 AND DIV SWAP5 DUP5 ADD DUP6 SWAP1 MSTORE SWAP5 DIV PUSH1 0x1 PUSH1 0x1 PUSH1 0xA0 SHL SUB AND SWAP4 PUSH32 0x8091ECAAA54EBB82E02D36C2C336528E0FCB9B3430FC1291AC88295032B9C263 SWAP4 DUP9 SWAP4 SWAP2 SWAP3 SWAP1 PUSH1 0x60 DUP4 ADD SWAP1 DUP5 SWAP1 DUP1 ISZERO PUSH2 0x4AE JUMPI DUP1 PUSH1 0x1F LT PUSH2 0x483 JUMPI PUSH2 0x100 DUP1 DUP4 SLOAD DIV MUL DUP4 MSTORE SWAP2 PUSH1 0x20 ADD SWAP2 PUSH2 0x4AE JUMP JUMPDEST DUP3 ADD SWAP2 SWAP1 PUSH1 0x0 MSTORE PUSH1 0x20 PUSH1 0x0 KECCAK256 SWAP1 JUMPDEST DUP2 SLOAD DUP2 MSTORE SWAP1 PUSH1 0x1 ADD SWAP1 PUSH1 0x20 ADD DUP1 DUP4 GT PUSH2 0x491 JUMPI DUP3 SWAP1 SUB PUSH1 0x1F AND DUP3 ADD SWAP2 JUMPDEST POP POP SWAP4 POP POP POP POP PUSH1 0x40 MLOAD DUP1 SWAP2 SUB SWAP1 LOG2 PUSH1 0x40 DUP1 MLOAD PUSH3 0x461BCD PUSH1 0xE5 SHL DUP2 MSTORE PUSH1 0x20 PUSH1 0x4 DUP3 ADD MSTORE PUSH1 0x12 PUSH1 0x24 DUP3 ADD MSTORE PUSH18 0x151C985B9CD858DD1A5BDB8811985A5B1959 PUSH1 0x72 SHL PUSH1 0x44 DUP3 ADD MSTORE SWAP1 MLOAD SWAP1 DUP2 SWAP1 SUB PUSH1 0x64 ADD SWAP1 REVERT JUMPDEST POP JUMPDEST POP PUSH1 0x1 ADD PUSH2 0x30F JUMP JUMPDEST POP JUMP JUMPDEST PUSH1 0x0 PUSH2 0x517 PUSH2 0xB28 JUMP JUMPDEST PUSH1 0x0 SLOAD PUSH1 0x1 PUSH1 0x1 PUSH1 0xA0 SHL SUB SWAP1 DUP2 AND SWAP2 AND EQ PUSH2 0x567 JUMPI PUSH1 0x40 DUP1 MLOAD PUSH3 0x461BCD PUSH1 0xE5 SHL DUP2 MSTORE PUSH1 0x20 PUSH1 0x4 DUP3 ADD DUP2 SWAP1 MSTORE PUSH1 0x24 DUP3 ADD MSTORE PUSH1 0x0 DUP1 MLOAD PUSH1 0x20 PUSH2 0xCE6 DUP4 CODECOPY DUP2 MLOAD SWAP2 MSTORE PUSH1 0x44 DUP3 ADD MSTORE SWAP1 MLOAD SWAP1 DUP2 SWAP1 SUB PUSH1 0x64 ADD SWAP1 REVERT JUMPDEST PUSH1 0x1 PUSH1 0x1 PUSH1 0xA0 SHL SUB DUP4 AND PUSH2 0x57A JUMPI PUSH1 0x0 DUP1 REVERT JUMPDEST DUP2 MLOAD PUSH2 0x585 JUMPI PUSH1 0x0 DUP1 REVERT JUMPDEST PUSH1 0x1 DUP1 SLOAD PUSH1 0x40 DUP1 MLOAD PUSH1 0x60 DUP2 ADD DUP3 MSTORE DUP4 DUP2 MSTORE PUSH1 0x1 PUSH1 0x1 PUSH1 0xA0 SHL SUB DUP1 DUP9 AND PUSH1 0x20 DUP1 DUP5 ADD SWAP2 DUP3 MSTORE SWAP4 DUP4 ADD DUP9 DUP2 MSTORE DUP6 DUP8 ADD DUP8 SSTORE PUSH1 0x0 SWAP7 SWAP1 SWAP7 MSTORE DUP3 MLOAD PUSH1 0x2 DUP7 MUL PUSH32 0xB10E2D527612073B26EECDFD717E6A320CF44B4AFAC2B0732D9FCBE2B7FA0CF6 DUP2 ADD DUP1 SLOAD SWAP4 MLOAD SWAP1 SWAP5 AND PUSH2 0x100 MUL PUSH2 0x100 PUSH1 0x1 PUSH1 0xA8 SHL SUB NOT SWAP3 ISZERO ISZERO PUSH1 0xFF NOT SWAP1 SWAP5 AND SWAP4 SWAP1 SWAP4 OR SWAP2 SWAP1 SWAP2 AND SWAP2 SWAP1 SWAP2 OR DUP3 SSTORE SWAP5 MLOAD DUP1 MLOAD SWAP5 SWAP6 SWAP3 SWAP5 SWAP2 SWAP4 PUSH2 0x648 SWAP4 PUSH32 0xB10E2D527612073B26EECDFD717E6A320CF44B4AFAC2B0732D9FCBE2B7FA0CF7 ADD SWAP3 SWAP2 ADD SWAP1 PUSH2 0xB4F JUMP JUMPDEST POP SWAP2 SWAP6 SWAP5 POP POP POP POP POP JUMP JUMPDEST PUSH2 0x65B PUSH2 0xB28 JUMP JUMPDEST PUSH1 0x0 SLOAD PUSH1 0x1 PUSH1 0x1 PUSH1 0xA0 SHL SUB SWAP1 DUP2 AND SWAP2 AND EQ PUSH2 0x6AB JUMPI PUSH1 0x40 DUP1 MLOAD PUSH3 0x461BCD PUSH1 0xE5 SHL DUP2 MSTORE PUSH1 0x20 PUSH1 0x4 DUP3 ADD DUP2 SWAP1 MSTORE PUSH1 0x24 DUP3 ADD MSTORE PUSH1 0x0 DUP1 MLOAD PUSH1 0x20 PUSH2 0xCE6 DUP4 CODECOPY DUP2 MLOAD SWAP2 MSTORE PUSH1 0x44 DUP3 ADD MSTORE SWAP1 MLOAD SWAP1 DUP2 SWAP1 SUB PUSH1 0x64 ADD SWAP1 REVERT JUMPDEST PUSH1 0x1 SLOAD DUP2 LT PUSH2 0x6F7 JUMPI PUSH1 0x40 DUP1 MLOAD PUSH3 0x461BCD PUSH1 0xE5 SHL DUP2 MSTORE PUSH1 0x20 PUSH1 0x4 DUP3 ADD MSTORE PUSH1 0x13 PUSH1 0x24 DUP3 ADD MSTORE PUSH19 0x696E646578206F7574206F6620626F756E6473 PUSH1 0x68 SHL PUSH1 0x44 DUP3 ADD MSTORE SWAP1 MLOAD SWAP1 DUP2 SWAP1 SUB PUSH1 0x64 ADD SWAP1 REVERT JUMPDEST PUSH1 0x1 SLOAD PUSH1 0x0 NOT ADD DUP2 LT ISZERO PUSH2 0x7A8 JUMPI PUSH1 0x1 DUP1 SLOAD PUSH1 0x0 NOT DUP2 ADD SWAP1 DUP2 LT PUSH2 0x717 JUMPI INVALID JUMPDEST SWAP1 PUSH1 0x0 MSTORE PUSH1 0x20 PUSH1 0x0 KECCAK256 SWAP1 PUSH1 0x2 MUL ADD PUSH1 0x1 DUP3 DUP2 SLOAD DUP2 LT PUSH2 0x732 JUMPI INVALID JUMPDEST PUSH1 0x0 SWAP2 DUP3 MSTORE PUSH1 0x20 SWAP1 SWAP2 KECCAK256 DUP3 SLOAD PUSH1 0x2 SWAP3 DUP4 MUL SWAP1 SWAP2 ADD DUP1 SLOAD PUSH1 0xFF NOT AND PUSH1 0xFF SWAP1 SWAP3 AND ISZERO ISZERO SWAP2 SWAP1 SWAP2 OR DUP1 DUP3 SSTORE DUP4 SLOAD PUSH2 0x100 PUSH1 0x1 PUSH1 0xA8 SHL SUB NOT SWAP1 SWAP2 AND PUSH2 0x100 SWAP2 DUP3 SWAP1 DIV PUSH1 0x1 PUSH1 0x1 PUSH1 0xA0 SHL SUB AND DUP3 MUL OR DUP3 SSTORE PUSH1 0x1 DUP1 DUP6 ADD DUP1 SLOAD SWAP4 SWAP5 PUSH2 0x7A4 SWAP5 DUP4 DUP8 ADD SWAP5 SWAP3 SWAP4 DUP2 AND ISZERO SWAP1 SWAP3 MUL PUSH1 0x0 NOT ADD SWAP1 SWAP2 AND DIV PUSH2 0xBCD JUMP JUMPDEST POP POP POP JUMPDEST PUSH1 0x1 DUP1 SLOAD DUP1 PUSH2 0x7B3 JUMPI INVALID JUMPDEST PUSH1 0x0 DUP3 DUP2 MSTORE PUSH1 0x20 DUP2 KECCAK256 PUSH1 0x2 PUSH1 0x0 NOT SWAP1 SWAP4 ADD SWAP3 DUP4 MUL ADD DUP1 SLOAD PUSH1 0x1 PUSH1 0x1 PUSH1 0xA8 SHL SUB NOT AND DUP2 SSTORE SWAP1 PUSH2 0x7E4 PUSH1 0x1 DUP4 ADD DUP3 PUSH2 0xC42 JUMP JUMPDEST POP POP SWAP1 SSTORE POP JUMP JUMPDEST PUSH2 0x7F3 PUSH2 0xB28 JUMP JUMPDEST PUSH1 0x0 SLOAD PUSH1 0x1 PUSH1 0x1 PUSH1 0xA0 SHL SUB SWAP1 DUP2 AND SWAP2 AND EQ PUSH2 0x843 JUMPI PUSH1 0x40 DUP1 MLOAD PUSH3 0x461BCD PUSH1 0xE5 SHL DUP2 MSTORE PUSH1 0x20 PUSH1 0x4 DUP3 ADD DUP2 SWAP1 MSTORE PUSH1 0x24 DUP3 ADD MSTORE PUSH1 0x0 DUP1 MLOAD PUSH1 0x20 PUSH2 0xCE6 DUP4 CODECOPY DUP2 MLOAD SWAP2 MSTORE PUSH1 0x44 DUP3 ADD MSTORE SWAP1 MLOAD SWAP1 DUP2 SWAP1 SUB PUSH1 0x64 ADD SWAP1 REVERT JUMPDEST PUSH1 0x1 SLOAD DUP3 LT PUSH2 0x883 JUMPI PUSH1 0x40 MLOAD PUSH3 0x461BCD PUSH1 0xE5 SHL DUP2 MSTORE PUSH1 0x4 ADD DUP1 DUP1 PUSH1 0x20 ADD DUP3 DUP2 SUB DUP3 MSTORE PUSH1 0x28 DUP2 MSTORE PUSH1 0x20 ADD DUP1 PUSH2 0xCBE PUSH1 0x28 SWAP2 CODECOPY PUSH1 0x40 ADD SWAP2 POP POP PUSH1 0x40 MLOAD DUP1 SWAP2 SUB SWAP1 REVERT JUMPDEST DUP1 PUSH1 0x1 DUP4 DUP2 SLOAD DUP2 LT PUSH2 0x891 JUMPI INVALID JUMPDEST PUSH1 0x0 SWAP2 DUP3 MSTORE PUSH1 0x20 SWAP1 SWAP2 KECCAK256 PUSH1 0x2 SWAP1 SWAP2 MUL ADD DUP1 SLOAD PUSH1 0xFF NOT AND SWAP2 ISZERO ISZERO SWAP2 SWAP1 SWAP2 OR SWAP1 SSTORE POP POP JUMP JUMPDEST PUSH2 0x8BC PUSH2 0xB28 JUMP JUMPDEST PUSH1 0x0 SLOAD PUSH1 0x1 PUSH1 0x1 PUSH1 0xA0 SHL SUB SWAP1 DUP2 AND SWAP2 AND EQ PUSH2 0x90C JUMPI PUSH1 0x40 DUP1 MLOAD PUSH3 0x461BCD PUSH1 0xE5 SHL DUP2 MSTORE PUSH1 0x20 PUSH1 0x4 DUP3 ADD DUP2 SWAP1 MSTORE PUSH1 0x24 DUP3 ADD MSTORE PUSH1 0x0 DUP1 MLOAD PUSH1 0x20 PUSH2 0xCE6 DUP4 CODECOPY DUP2 MLOAD SWAP2 MSTORE PUSH1 0x44 DUP3 ADD MSTORE SWAP1 MLOAD SWAP1 DUP2 SWAP1 SUB PUSH1 0x64 ADD SWAP1 REVERT JUMPDEST PUSH1 0x0 DUP1 SLOAD PUSH1 0x40 MLOAD PUSH1 0x1 PUSH1 0x1 PUSH1 0xA0 SHL SUB SWAP1 SWAP2 AND SWAP1 PUSH32 0x8BE0079C531659141344CD1FD0A4F28419497F9722A3DAAFE3B4186F6B6457E0 SWAP1 DUP4 SWAP1 LOG3 PUSH1 0x0 DUP1 SLOAD PUSH1 0x1 PUSH1 0x1 PUSH1 0xA0 SHL SUB NOT AND SWAP1 SSTORE JUMP JUMPDEST PUSH1 0x0 SLOAD PUSH1 0x1 PUSH1 0x1 PUSH1 0xA0 SHL SUB AND SWAP1 JUMP JUMPDEST PUSH1 0x1 SLOAD SWAP1 JUMP JUMPDEST PUSH1 0x1 DUP2 DUP2 SLOAD DUP2 LT PUSH2 0x978 JUMPI INVALID JUMPDEST PUSH1 0x0 SWAP2 DUP3 MSTORE PUSH1 0x20 SWAP2 DUP3 SWAP1 KECCAK256 PUSH1 0x2 SWAP2 DUP3 MUL ADD DUP1 SLOAD PUSH1 0x1 DUP1 DUP4 ADD DUP1 SLOAD PUSH1 0x40 DUP1 MLOAD PUSH2 0x100 SWAP5 DUP4 AND ISZERO DUP6 MUL PUSH1 0x0 NOT ADD SWAP1 SWAP3 AND SWAP7 SWAP1 SWAP7 DIV PUSH1 0x1F DUP2 ADD DUP9 SWAP1 DIV DUP9 MUL DUP3 ADD DUP9 ADD SWAP1 SWAP7 MSTORE DUP6 DUP2 MSTORE PUSH1 0xFF DUP5 AND SWAP8 POP SWAP2 SWAP1 SWAP3 DIV PUSH1 0x1 PUSH1 0x1 PUSH1 0xA0 SHL SUB AND SWAP5 SWAP3 SWAP4 SWAP1 SWAP3 DUP4 ADD DUP3 DUP3 DUP1 ISZERO PUSH2 0xA26 JUMPI DUP1 PUSH1 0x1F LT PUSH2 0x9FB JUMPI PUSH2 0x100 DUP1 DUP4 SLOAD DIV MUL DUP4 MSTORE SWAP2 PUSH1 0x20 ADD SWAP2 PUSH2 0xA26 JUMP JUMPDEST DUP3 ADD SWAP2 SWAP1 PUSH1 0x0 MSTORE PUSH1 0x20 PUSH1 0x0 KECCAK256 SWAP1 JUMPDEST DUP2 SLOAD DUP2 MSTORE SWAP1 PUSH1 0x1 ADD SWAP1 PUSH1 0x20 ADD DUP1 DUP4 GT PUSH2 0xA09 JUMPI DUP3 SWAP1 SUB PUSH1 0x1F AND DUP3 ADD SWAP2 JUMPDEST POP POP POP POP POP SWAP1 POP DUP4 JUMP JUMPDEST PUSH2 0xA38 PUSH2 0xB28 JUMP JUMPDEST PUSH1 0x0 SLOAD PUSH1 0x1 PUSH1 0x1 PUSH1 0xA0 SHL SUB SWAP1 DUP2 AND SWAP2 AND EQ PUSH2 0xA88 JUMPI PUSH1 0x40 DUP1 MLOAD PUSH3 0x461BCD PUSH1 0xE5 SHL DUP2 MSTORE PUSH1 0x20 PUSH1 0x4 DUP3 ADD DUP2 SWAP1 MSTORE PUSH1 0x24 DUP3 ADD MSTORE PUSH1 0x0 DUP1 MLOAD PUSH1 0x20 PUSH2 0xCE6 DUP4 CODECOPY DUP2 MLOAD SWAP2 MSTORE PUSH1 0x44 DUP3 ADD MSTORE SWAP1 MLOAD SWAP1 DUP2 SWAP1 SUB PUSH1 0x64 ADD SWAP1 REVERT JUMPDEST PUSH1 0x1 PUSH1 0x1 PUSH1 0xA0 SHL SUB DUP2 AND PUSH2 0xACD JUMPI PUSH1 0x40 MLOAD PUSH3 0x461BCD PUSH1 0xE5 SHL DUP2 MSTORE PUSH1 0x4 ADD DUP1 DUP1 PUSH1 0x20 ADD DUP3 DUP2 SUB DUP3 MSTORE PUSH1 0x26 DUP2 MSTORE PUSH1 0x20 ADD DUP1 PUSH2 0xC98 PUSH1 0x26 SWAP2 CODECOPY PUSH1 0x40 ADD SWAP2 POP POP PUSH1 0x40 MLOAD DUP1 SWAP2 SUB SWAP1 REVERT JUMPDEST PUSH1 0x0 DUP1 SLOAD PUSH1 0x40 MLOAD PUSH1 0x1 PUSH1 0x1 PUSH1 0xA0 SHL SUB DUP1 DUP6 AND SWAP4 SWAP3 AND SWAP2 PUSH32 0x8BE0079C531659141344CD1FD0A4F28419497F9722A3DAAFE3B4186F6B6457E0 SWAP2 LOG3 PUSH1 0x0 DUP1 SLOAD PUSH1 0x1 PUSH1 0x1 PUSH1 0xA0 SHL SUB NOT AND PUSH1 0x1 PUSH1 0x1 PUSH1 0xA0 SHL SUB SWAP3 SWAP1 SWAP3 AND SWAP2 SWAP1 SWAP2 OR SWAP1 SSTORE JUMP JUMPDEST CALLER SWAP1 JUMP JUMPDEST PUSH1 0x0 DUP1 PUSH1 0x40 MLOAD PUSH1 0x20 DUP5 ADD PUSH1 0x0 DUP3 DUP7 MLOAD DUP4 PUSH1 0x0 DUP11 PUSH2 0x8796 GAS SUB CALL SWAP7 SWAP6 POP POP POP POP POP POP JUMP JUMPDEST DUP3 DUP1 SLOAD PUSH1 0x1 DUP2 PUSH1 0x1 AND ISZERO PUSH2 0x100 MUL SUB AND PUSH1 0x2 SWAP1 DIV SWAP1 PUSH1 0x0 MSTORE PUSH1 0x20 PUSH1 0x0 KECCAK256 SWAP1 PUSH1 0x1F ADD PUSH1 0x20 SWAP1 DIV DUP2 ADD SWAP3 DUP3 PUSH1 0x1F LT PUSH2 0xB90 JUMPI DUP1 MLOAD PUSH1 0xFF NOT AND DUP4 DUP1 ADD OR DUP6 SSTORE PUSH2 0xBBD JUMP JUMPDEST DUP3 DUP1 ADD PUSH1 0x1 ADD DUP6 SSTORE DUP3 ISZERO PUSH2 0xBBD JUMPI SWAP2 DUP3 ADD JUMPDEST DUP3 DUP2 GT ISZERO PUSH2 0xBBD JUMPI DUP3 MLOAD DUP3 SSTORE SWAP2 PUSH1 0x20 ADD SWAP2 SWAP1 PUSH1 0x1 ADD SWAP1 PUSH2 0xBA2 JUMP JUMPDEST POP PUSH2 0xBC9 SWAP3 SWAP2 POP PUSH2 0xC82 JUMP JUMPDEST POP SWAP1 JUMP JUMPDEST DUP3 DUP1 SLOAD PUSH1 0x1 DUP2 PUSH1 0x1 AND ISZERO PUSH2 0x100 MUL SUB AND PUSH1 0x2 SWAP1 DIV SWAP1 PUSH1 0x0 MSTORE PUSH1 0x20 PUSH1 0x0 KECCAK256 SWAP1 PUSH1 0x1F ADD PUSH1 0x20 SWAP1 DIV DUP2 ADD SWAP3 DUP3 PUSH1 0x1F LT PUSH2 0xC06 JUMPI DUP1 SLOAD DUP6 SSTORE PUSH2 0xBBD JUMP JUMPDEST DUP3 DUP1 ADD PUSH1 0x1 ADD DUP6 SSTORE DUP3 ISZERO PUSH2 0xBBD JUMPI PUSH1 0x0 MSTORE PUSH1 0x20 PUSH1 0x0 KECCAK256 SWAP2 PUSH1 0x1F ADD PUSH1 0x20 SWAP1 DIV DUP3 ADD JUMPDEST DUP3 DUP2 GT ISZERO PUSH2 0xBBD JUMPI DUP3 SLOAD DUP3 SSTORE SWAP2 PUSH1 0x1 ADD SWAP2 SWAP1 PUSH1 0x1 ADD SWAP1 PUSH2 0xC27 JUMP JUMPDEST POP DUP1 SLOAD PUSH1 0x1 DUP2 PUSH1 0x1 AND ISZERO PUSH2 0x100 MUL SUB AND PUSH1 0x2 SWAP1 DIV PUSH1 0x0 DUP3 SSTORE DUP1 PUSH1 0x1F LT PUSH2 0xC68 JUMPI POP PUSH2 0x50A JUMP JUMPDEST PUSH1 0x1F ADD PUSH1 0x20 SWAP1 DIV SWAP1 PUSH1 0x0 MSTORE PUSH1 0x20 PUSH1 0x0 KECCAK256 SWAP1 DUP2 ADD SWAP1 PUSH2 0x50A SWAP2 SWAP1 JUMPDEST JUMPDEST DUP1 DUP3 GT ISZERO PUSH2 0xBC9 JUMPI PUSH1 0x0 DUP2 SSTORE PUSH1 0x1 ADD PUSH2 0xC83 JUMP INVALID 0x4F PUSH24 0x6E61626C653A206E6577206F776E65722069732074686520 PUSH27 0x65726F2061646472657373696E646578206D75737420626520696E KECCAK256 PUSH19 0x616E6765206F662073746F726564207478206C PUSH10 0x73744F776E61626C653A KECCAK256 PUSH4 0x616C6C65 PUSH19 0x206973206E6F7420746865206F776E6572A264 PUSH10 0x706673582212206443B8 EQ 0xB4 ISZERO SUB SWAP13 CREATE2 0x49 PUSH2 0x37EB SWAP3 0xD5 PUSH12 0x37ED4FDA41B5A3737556C309 PUSH30 0xD6A19A64736F6C634300060C003300000000000000000000000000000000 "
                },
                "methodIdentifiers": {
                    "addTransaction(address,bytes)": "126e19be",
                    "executeTransactions()": "069549bc",
                    "owner()": "8da5cb5b",
                    "removeTransaction(uint256)": "46c3bd1f",
                    "renounceOwnership()": "715018a6",
                    "setTransactionEnabled(uint256,bool)": "6e9dde99",
                    "transactions(uint256)": "9ace38c2",
                    "transactionsSize()": "91d4ec18",
                    "transferOwnership(address)": "f2fde38b"
                }
            }
        }
    }
}