{
    "_format": "hh-sol-artifact-1",
    "contractName": "StakehoundGeyser",
    "sourceName": "contracts/stakehound-geyser/StakehoundGeyser.sol",
    "abi": [
        {
            "anonymous": false,
            "inputs": [
                {
                    "indexed": false,
                    "internalType": "address",
                    "name": "token",
                    "type": "address"
                },
                {
                    "indexed": false,
                    "internalType": "uint256",
                    "name": "timestamp",
                    "type": "uint256"
                }
            ],
            "name": "ClearSchedules",
            "type": "event"
        },
        {
            "anonymous": false,
            "inputs": [
                {
                    "indexed": true,
                    "internalType": "bytes32",
                    "name": "role",
                    "type": "bytes32"
                },
                {
                    "indexed": true,
                    "internalType": "bytes32",
                    "name": "previousAdminRole",
                    "type": "bytes32"
                },
                {
                    "indexed": true,
                    "internalType": "bytes32",
                    "name": "newAdminRole",
                    "type": "bytes32"
                }
            ],
            "name": "RoleAdminChanged",
            "type": "event"
        },
        {
            "anonymous": false,
            "inputs": [
                {
                    "indexed": true,
                    "internalType": "bytes32",
                    "name": "role",
                    "type": "bytes32"
                },
                {
                    "indexed": true,
                    "internalType": "address",
                    "name": "account",
                    "type": "address"
                },
                {
                    "indexed": true,
                    "internalType": "address",
                    "name": "sender",
                    "type": "address"
                }
            ],
            "name": "RoleGranted",
            "type": "event"
        },
        {
            "anonymous": false,
            "inputs": [
                {
                    "indexed": true,
                    "internalType": "bytes32",
                    "name": "role",
                    "type": "bytes32"
                },
                {
                    "indexed": true,
                    "internalType": "address",
                    "name": "account",
                    "type": "address"
                },
                {
                    "indexed": true,
                    "internalType": "address",
                    "name": "sender",
                    "type": "address"
                }
            ],
            "name": "RoleRevoked",
            "type": "event"
        },
        {
            "anonymous": false,
            "inputs": [
                {
                    "indexed": true,
                    "internalType": "address",
                    "name": "user",
                    "type": "address"
                },
                {
                    "indexed": false,
                    "internalType": "uint256",
                    "name": "shares",
                    "type": "uint256"
                },
                {
                    "indexed": false,
                    "internalType": "uint256",
                    "name": "total",
                    "type": "uint256"
                },
                {
                    "indexed": true,
                    "internalType": "uint256",
                    "name": "timestamp",
                    "type": "uint256"
                }
            ],
            "name": "Staked",
            "type": "event"
        },
        {
            "anonymous": false,
            "inputs": [
                {
                    "indexed": false,
                    "internalType": "address",
                    "name": "token",
                    "type": "address"
                },
                {
                    "indexed": false,
                    "internalType": "uint256",
                    "name": "sharesLocked",
                    "type": "uint256"
                },
                {
                    "indexed": false,
                    "internalType": "uint256",
                    "name": "durationSec",
                    "type": "uint256"
                },
                {
                    "indexed": false,
                    "internalType": "uint256",
                    "name": "startTime",
                    "type": "uint256"
                },
                {
                    "indexed": false,
                    "internalType": "uint256",
                    "name": "endTime",
                    "type": "uint256"
                },
                {
                    "indexed": true,
                    "internalType": "uint256",
                    "name": "timestamp",
                    "type": "uint256"
                }
            ],
            "name": "UnlockScheduleSet",
            "type": "event"
        },
        {
            "anonymous": false,
            "inputs": [
                {
                    "indexed": true,
                    "internalType": "address",
                    "name": "user",
                    "type": "address"
                },
                {
                    "indexed": false,
                    "internalType": "uint256",
                    "name": "shares",
                    "type": "uint256"
                },
                {
                    "indexed": false,
                    "internalType": "uint256",
                    "name": "total",
                    "type": "uint256"
                },
                {
                    "indexed": true,
                    "internalType": "uint256",
                    "name": "timestamp",
                    "type": "uint256"
                }
            ],
            "name": "Unstaked",
            "type": "event"
        },
        {
            "inputs": [],
            "name": "DEFAULT_ADMIN_ROLE",
            "outputs": [
                {
                    "internalType": "bytes32",
                    "name": "",
                    "type": "bytes32"
                }
            ],
            "stateMutability": "view",
            "type": "function"
        },
        {
            "inputs": [],
            "name": "MAX_PERCENTAGE",
            "outputs": [
                {
                    "internalType": "uint256",
                    "name": "",
                    "type": "uint256"
                }
            ],
            "stateMutability": "view",
            "type": "function"
        },
        {
            "inputs": [],
            "name": "TOKEN_LOCKER_ROLE",
            "outputs": [
                {
                    "internalType": "bytes32",
                    "name": "",
                    "type": "bytes32"
                }
            ],
            "stateMutability": "view",
            "type": "function"
        },
        {
            "inputs": [
                {
                    "internalType": "address",
                    "name": "token",
                    "type": "address"
                }
            ],
            "name": "addDistributionToken",
            "outputs": [],
            "stateMutability": "nonpayable",
            "type": "function"
        },
        {
            "inputs": [
                {
                    "internalType": "address",
                    "name": "token",
                    "type": "address"
                }
            ],
            "name": "clearSchedules",
            "outputs": [],
            "stateMutability": "nonpayable",
            "type": "function"
        },
        {
            "inputs": [],
            "name": "getDistributionTokens",
            "outputs": [
                {
                    "internalType": "address[]",
                    "name": "",
                    "type": "address[]"
                }
            ],
            "stateMutability": "view",
            "type": "function"
        },
        {
            "inputs": [],
            "name": "getNumDistributionTokens",
            "outputs": [
                {
                    "internalType": "uint256",
                    "name": "",
                    "type": "uint256"
                }
            ],
            "stateMutability": "view",
            "type": "function"
        },
        {
            "inputs": [
                {
                    "internalType": "bytes32",
                    "name": "role",
                    "type": "bytes32"
                }
            ],
            "name": "getRoleAdmin",
            "outputs": [
                {
                    "internalType": "bytes32",
                    "name": "",
                    "type": "bytes32"
                }
            ],
            "stateMutability": "view",
            "type": "function"
        },
        {
            "inputs": [
                {
                    "internalType": "bytes32",
                    "name": "role",
                    "type": "bytes32"
                },
                {
                    "internalType": "uint256",
                    "name": "index",
                    "type": "uint256"
                }
            ],
            "name": "getRoleMember",
            "outputs": [
                {
                    "internalType": "address",
                    "name": "",
                    "type": "address"
                }
            ],
            "stateMutability": "view",
            "type": "function"
        },
        {
            "inputs": [
                {
                    "internalType": "bytes32",
                    "name": "role",
                    "type": "bytes32"
                }
            ],
            "name": "getRoleMemberCount",
            "outputs": [
                {
                    "internalType": "uint256",
                    "name": "",
                    "type": "uint256"
                }
            ],
            "stateMutability": "view",
            "type": "function"
        },
        {
            "inputs": [],
            "name": "getStakingToken",
            "outputs": [
                {
                    "internalType": "contract IERC20Upgradeable",
                    "name": "",
                    "type": "address"
                }
            ],
            "stateMutability": "view",
            "type": "function"
        },
        {
            "inputs": [],
            "name": "globalStartTime",
            "outputs": [
                {
                    "internalType": "uint256",
                    "name": "",
                    "type": "uint256"
                }
            ],
            "stateMutability": "view",
            "type": "function"
        },
        {
            "inputs": [
                {
                    "internalType": "bytes32",
                    "name": "role",
                    "type": "bytes32"
                },
                {
                    "internalType": "address",
                    "name": "account",
                    "type": "address"
                }
            ],
            "name": "grantRole",
            "outputs": [],
            "stateMutability": "nonpayable",
            "type": "function"
        },
        {
            "inputs": [
                {
                    "internalType": "bytes32",
                    "name": "role",
                    "type": "bytes32"
                },
                {
                    "internalType": "address",
                    "name": "account",
                    "type": "address"
                }
            ],
            "name": "hasRole",
            "outputs": [
                {
                    "internalType": "bool",
                    "name": "",
                    "type": "bool"
                }
            ],
            "stateMutability": "view",
            "type": "function"
        },
        {
            "inputs": [
                {
                    "internalType": "contract IERC20Upgradeable",
                    "name": "stakingToken_",
                    "type": "address"
                },
                {
                    "internalType": "uint256",
                    "name": "globalStartTime_",
                    "type": "uint256"
                },
                {
                    "internalType": "address",
                    "name": "initialAdmin_",
                    "type": "address"
                },
                {
                    "internalType": "address",
                    "name": "initialTokenLocker_",
                    "type": "address"
                }
            ],
            "name": "initialize",
            "outputs": [],
            "stateMutability": "nonpayable",
            "type": "function"
        },
        {
            "inputs": [
                {
                    "internalType": "bytes32",
                    "name": "role",
                    "type": "bytes32"
                },
                {
                    "internalType": "address",
                    "name": "account",
                    "type": "address"
                }
            ],
            "name": "renounceRole",
            "outputs": [],
            "stateMutability": "nonpayable",
            "type": "function"
        },
        {
            "inputs": [
                {
                    "internalType": "bytes32",
                    "name": "role",
                    "type": "bytes32"
                },
                {
                    "internalType": "address",
                    "name": "account",
                    "type": "address"
                }
            ],
            "name": "revokeRole",
            "outputs": [],
            "stateMutability": "nonpayable",
            "type": "function"
        },
        {
            "inputs": [
                {
                    "internalType": "address",
                    "name": "token",
                    "type": "address"
                },
                {
                    "internalType": "uint256",
                    "name": "amount",
                    "type": "uint256"
                },
                {
                    "internalType": "uint256",
                    "name": "durationSec",
                    "type": "uint256"
                },
                {
                    "internalType": "uint256",
                    "name": "startTime",
                    "type": "uint256"
                }
            ],
            "name": "signalTokenLock",
            "outputs": [],
            "stateMutability": "nonpayable",
            "type": "function"
        },
        {
            "inputs": [
                {
                    "internalType": "uint256",
                    "name": "amount",
                    "type": "uint256"
                },
                {
                    "internalType": "bytes",
                    "name": "data",
                    "type": "bytes"
                }
            ],
            "name": "stake",
            "outputs": [],
            "stateMutability": "nonpayable",
            "type": "function"
        },
        {
            "inputs": [
                {
                    "internalType": "address",
                    "name": "user",
                    "type": "address"
                },
                {
                    "internalType": "uint256",
                    "name": "amount",
                    "type": "uint256"
                },
                {
                    "internalType": "bytes",
                    "name": "data",
                    "type": "bytes"
                }
            ],
            "name": "stakeFor",
            "outputs": [],
            "stateMutability": "nonpayable",
            "type": "function"
        },
        {
            "inputs": [],
            "name": "supportsHistory",
            "outputs": [
                {
                    "internalType": "bool",
                    "name": "",
                    "type": "bool"
                }
            ],
            "stateMutability": "pure",
            "type": "function"
        },
        {
            "inputs": [],
            "name": "totalStaked",
            "outputs": [
                {
                    "internalType": "uint256",
                    "name": "",
                    "type": "uint256"
                }
            ],
            "stateMutability": "view",
            "type": "function"
        },
        {
            "inputs": [
                {
                    "internalType": "address",
                    "name": "addr",
                    "type": "address"
                }
            ],
            "name": "totalStakedFor",
            "outputs": [
                {
                    "internalType": "uint256",
                    "name": "",
                    "type": "uint256"
                }
            ],
            "stateMutability": "view",
            "type": "function"
        },
        {
            "inputs": [
                {
                    "internalType": "uint256",
                    "name": "amount",
                    "type": "uint256"
                },
                {
                    "internalType": "bytes",
                    "name": "data",
                    "type": "bytes"
                }
            ],
            "name": "unstake",
            "outputs": [],
            "stateMutability": "nonpayable",
            "type": "function"
        }
    ],
    "bytecode": "0x608060405234801561001057600080fd5b50611a0a806100206000396000f3fe608060405234801561001057600080fd5b50600436106101585760003560e01c80638dab7191116100c3578063a217fddf1161007c578063a217fddf146102a5578063c8fd6ed0146102ad578063ca15c873146102c0578063cd616ea3146102d3578063d547741f146102db578063ed061e04146102ee57610158565b80638dab7191146102475780639010d07c1461025a57806391d148541461027a5780639292ab5f1461028d5780639d81ff15146102955780639f9106d11461029d57610158565b806336568abe1161011557806336568abe146101e75780634b341aed146101fa5780634c255c971461020d5780635099a9dc146102155780637033e4a61461022a578063817b1cd21461023f57610158565b80630968c3d81461015d5780630e89439b146101725780630ef9635614610185578063248a9ca3146101985780632f2ff15d146101c1578063358394d8146101d4575b600080fd5b61017061016b3660046111ad565b610301565b005b6101706101803660046112c1565b61038d565b610170610193366004611153565b6103a5565b6101ab6101a6366004611207565b6103b8565b6040516101b891906113fe565b60405180910390f35b6101706101cf36600461121f565b6103cd565b6101706101e236600461126f565b610415565b6101706101f536600461121f565b610539565b6101ab610208366004611137565b61057b565b6101ab610596565b61021d61059b565b6040516101b891906113a6565b61023261063a565b6040516101b891906113f3565b6101ab61063f565b610170610255366004611137565b610645565b61026d61026836600461124e565b610658565b6040516101b89190611327565b61023261028836600461121f565b610679565b6101ab610691565b6101ab6106a2565b61026d6106a8565b6101ab6106b7565b6101706102bb3660046112c1565b6106bc565b6101ab6102ce366004611207565b6106ce565b6101ab6106e5565b6101706102e936600461121f565b610709565b6101706102fc366004611137565b610743565b6103096107ae565b6065548110156103345760405162461bcd60e51b815260040161032b90611525565b60405180910390fd5b804211156103545760405162461bcd60e51b815260040161032b90611583565b61035f6068856107f6565b61037b5760405162461bcd60e51b815260040161032b90611655565b6103878484848461080b565b50505050565b61039561085a565b6103a033338561087c565b505050565b6103ad61085a565b61038733858561087c565b60009081526033602052604090206002015490565b6000828152603360205260409020600201546103eb90610288610977565b6104075760405162461bcd60e51b815260040161032b906114d6565b610411828261097b565b5050565b600054610100900460ff168061042e575061042e6109e4565b8061043c575060005460ff16155b6104585760405162461bcd60e51b815260040161032b906117c4565b600054610100900460ff16158015610483576000805460ff1961ff0019909116610100171660011790555b61048b6109ea565b610496600084610407565b6104c07f4bf6f2cdcc8ad6c087a7a4fbecf46150b3686b71387234cac2b3e2e6dc70e34583610407565b606780546001600160a01b0319166001600160a01b038716179055606584905560405184906000907fb4caaf29adda3eefee3ad552a8e85058589bf834c7466cae4ee58787f70589ed90610518906001908190611407565b60405180910390a38015610532576000805461ff00191690555b5050505050565b610541610977565b6001600160a01b0316816001600160a01b0316146105715760405162461bcd60e51b815260040161032b90611944565b6104118282610a7d565b6001600160a01b03166000908152606a602052604090205490565b606481565b606060006105a96068610ae6565b905060608167ffffffffffffffff811180156105c457600080fd5b506040519080825280602002602001820160405280156105ee578160200160208202803683370190505b50905060005b8281101561063357610607606882610af1565b82828151811061061357fe5b6001600160a01b03909216602092830291909101909101526001016105f4565b5091505090565b600090565b60665481565b61064d610afd565b610411606882610b24565b60008281526033602052604081206106709083610af1565b90505b92915050565b600082815260336020526040812061067090836107f6565b600061069d6068610ae6565b905090565b60655481565b6067546001600160a01b031690565b600081565b6106c461085a565b6103a03384610b39565b600081815260336020526040812061067390610ae6565b7f4bf6f2cdcc8ad6c087a7a4fbecf46150b3686b71387234cac2b3e2e6dc70e34581565b60008281526033602052604090206002015461072790610288610977565b6105715760405162461bcd60e51b815260040161032b906116e8565b61074b6107ae565b6107566068826107f6565b6107725760405162461bcd60e51b815260040161032b90611655565b7fb3cddde98c004ae0f91ee2e8435b94bd13db482dd1580da8c571264fde7c8a2081426040516107a392919061135f565b60405180910390a150565b6107d87f4bf6f2cdcc8ad6c087a7a4fbecf46150b3686b71387234cac2b3e2e6dc70e34533610679565b6107f45760405162461bcd60e51b815260040161032b906114ad565b565b6000610670836001600160a01b038416610c34565b427feee17d644a64d4966b347af6130e045d906dcb25a1abe1694de87b981b1ff2068585858561083b8183610c4c565b60405161084c959493929190611378565b60405180910390a250505050565b6065544210156107f45760405162461bcd60e51b815260040161032b90611738565b6000811161089c5760405162461bcd60e51b815260040161032b90611782565b6001600160a01b0382166108c25760405162461bcd60e51b815260040161032b9061187a565b6001600160a01b0382166000908152606a60205260409020546108e59082610c4c565b6001600160a01b0383166000908152606a602052604090205560665461090b9082610c4c565b606655606754610926906001600160a01b0316843084610c71565b42826001600160a01b03167fb4caaf29adda3eefee3ad552a8e85058589bf834c7466cae4ee58787f70589ed8361095c8661057b565b60405161096a929190611407565b60405180910390a3505050565b3390565b60008281526033602052604090206109939082610b24565b15610411576109a0610977565b6001600160a01b0316816001600160a01b0316837f2f8788117e7eff1d82e926ec794901d17c78024a50270940304540a733656f0d60405160405180910390a45050565b303b1590565b600054610100900460ff1680610a035750610a036109e4565b80610a11575060005460ff16155b610a2d5760405162461bcd60e51b815260040161032b906117c4565b600054610100900460ff16158015610a58576000805460ff1961ff0019909116610100171660011790555b610a60610cc9565b610a68610cc9565b8015610a7a576000805461ff00191690555b50565b6000828152603360205260409020610a959082610d4a565b1561041157610aa2610977565b6001600160a01b0316816001600160a01b0316837ff6391f5c32d9c69d2a47ea670b442974b53935d1edc7fd64eb21e047a839171b60405160405180910390a45050565b600061067382610d5f565b60006106708383610d63565b610b08600033610679565b6107f45760405162461bcd60e51b815260040161032b90611448565b6000610670836001600160a01b038416610da8565b60008111610b595760405162461bcd60e51b815260040161032b9061160d565b80610b638361057b565b1015610b815760405162461bcd60e51b815260040161032b90611812565b6001600160a01b0382166000908152606a6020526040902054610ba49082610df2565b6001600160a01b0383166000908152606a6020526040902055606654610bca9082610df2565b606655606754610be4906001600160a01b03168383610e34565b42826001600160a01b03167f204fccf0d92ed8d48f204adb39b2e81e92bad0dedb93f5716ca9478cfb57de0083610c1a8661057b565b604051610c28929190611407565b60405180910390a35050565b60009081526001919091016020526040902054151590565b6000828201838110156106705760405162461bcd60e51b815260040161032b906115d6565b610387846323b872dd60e01b858585604051602401610c929392919061133b565b60408051601f198184030181529190526020810180516001600160e01b03166001600160e01b031990931692909217909152610e53565b600054610100900460ff1680610ce25750610ce26109e4565b80610cf0575060005460ff16155b610d0c5760405162461bcd60e51b815260040161032b906117c4565b600054610100900460ff16158015610a68576000805460ff1961ff0019909116610100171660011790558015610a7a576000805461ff001916905550565b6000610670836001600160a01b038416610ee2565b5490565b81546000908210610d865760405162461bcd60e51b815260040161032b9061146b565b826000018281548110610d9557fe5b9060005260206000200154905092915050565b6000610db48383610c34565b610dea57508154600181810184556000848152602080822090930184905584548482528286019093526040902091909155610673565b506000610673565b600061067083836040518060400160405280601e81526020017f536166654d6174683a207375627472616374696f6e206f766572666c6f770000815250610fa8565b6103a08363a9059cbb60e01b8484604051602401610c9292919061135f565b6060610ea8826040518060400160405280602081526020017f5361666545524332303a206c6f772d6c6576656c2063616c6c206661696c6564815250856001600160a01b0316610fd99092919063ffffffff16565b8051909150156103a05780806020019051810190610ec691906111e7565b6103a05760405162461bcd60e51b815260040161032b906118fa565b60008181526001830160205260408120548015610f9e5783546000198083019190810190600090879083908110610f1557fe5b9060005260206000200154905080876000018481548110610f3257fe5b600091825260208083209091019290925582815260018981019092526040902090840190558654879080610f6257fe5b60019003818190600052602060002001600090559055866001016000878152602001908152602001600020600090556001945050505050610673565b6000915050610673565b60008184841115610fcc5760405162461bcd60e51b815260040161032b9190611415565b50508183035b9392505050565b6060610fe88484600085610ff0565b949350505050565b6060824710156110125760405162461bcd60e51b815260040161032b906116a2565b61101b856110b1565b6110375760405162461bcd60e51b815260040161032b906118c3565b60006060866001600160a01b03168587604051611054919061130b565b60006040518083038185875af1925050503d8060008114611091576040519150601f19603f3d011682016040523d82523d6000602084013e611096565b606091505b50915091506110a68282866110b7565b979650505050505050565b3b151590565b606083156110c6575081610fd2565b8251156110d65782518084602001fd5b8160405162461bcd60e51b815260040161032b9190611415565b60008083601f840112611101578182fd5b50813567ffffffffffffffff811115611118578182fd5b60208301915083602082850101111561113057600080fd5b9250929050565b600060208284031215611148578081fd5b8135610670816119bf565b60008060008060608587031215611168578283fd5b8435611173816119bf565b935060208501359250604085013567ffffffffffffffff811115611195578283fd5b6111a1878288016110f0565b95989497509550505050565b600080600080608085870312156111c2578384fd5b84356111cd816119bf565b966020860135965060408601359560600135945092505050565b6000602082840312156111f8578081fd5b81518015158114610670578182fd5b600060208284031215611218578081fd5b5035919050565b60008060408385031215611231578182fd5b823591506020830135611243816119bf565b809150509250929050565b60008060408385031215611260578182fd5b50508035926020909101359150565b60008060008060808587031215611284578384fd5b843561128f816119bf565b93506020850135925060408501356112a6816119bf565b915060608501356112b6816119bf565b939692955090935050565b6000806000604084860312156112d5578283fd5b83359250602084013567ffffffffffffffff8111156112f2578283fd5b6112fe868287016110f0565b9497909650939450505050565b6000825161131d818460208701611993565b9190910192915050565b6001600160a01b0391909116815260200190565b6001600160a01b039384168152919092166020820152604081019190915260600190565b6001600160a01b03929092168252602082015260400190565b6001600160a01b03959095168552602085019390935260408401919091526060830152608082015260a00190565b6020808252825182820181905260009190848201906040850190845b818110156113e75783516001600160a01b0316835292840192918401916001016113c2565b50909695505050505050565b901515815260200190565b90815260200190565b918252602082015260400190565b6000602082528251806020840152611434816040850160208701611993565b601f01601f19169190910160400192915050565b60208082526009908201526837b7363ca0b236b4b760b91b604082015260600190565b60208082526022908201527f456e756d657261626c655365743a20696e646578206f7574206f6620626f756e604082015261647360f01b606082015260800190565b6020808252600f908201526e37b7363caa37b5b2b72637b1b5b2b960891b604082015260600190565b6020808252602f908201527f416363657373436f6e74726f6c3a2073656e646572206d75737420626520616e60408201526e0818591b5a5b881d1bc819dc985b9d608a1b606082015260800190565b602080825260409082018190527f5374616b65686f756e644765797365723a205363686564756c652063616e6e6f908201527f74207374617274206265666f726520676c6f62616c2073746172742074696d65606082015260800190565b60208082526033908201527f5374616b65686f756e644765797365723a205363686564756c652063616e6e6f6040820152721d081cdd185c9d081a5b881d1a19481c185cdd606a1b606082015260800190565b6020808252601b908201527f536166654d6174683a206164646974696f6e206f766572666c6f770000000000604082015260600190565b60208082526028908201527f5374616b65686f756e644765797365723a20756e7374616b6520616d6f756e74604082015267206973207a65726f60c01b606082015260800190565b6020808252602d908201527f5374616b65686f756e644765797365723a20546f6b656e206e6f74206170707260408201526c37bb32b210313c9030b236b4b760991b606082015260800190565b60208082526026908201527f416464726573733a20696e73756666696369656e742062616c616e636520666f6040820152651c8818d85b1b60d21b606082015260800190565b60208082526030908201527f416363657373436f6e74726f6c3a2073656e646572206d75737420626520616e60408201526f2061646d696e20746f207265766f6b6560801b606082015260800190565b6020808252602a908201527f5374616b65686f756e644765797365723a20446973747269627574696f6e206e6040820152691bdd081cdd185c9d195960b21b606082015260800190565b60208082526022908201527f4261646765724765797365723a207374616b6520616d6f756e74206973207a65604082015261726f60f01b606082015260800190565b6020808252602e908201527f496e697469616c697a61626c653a20636f6e747261637420697320616c72656160408201526d191e481a5b9a5d1a585b1a5e995960921b606082015260800190565b60208082526042908201527f5374616b65686f756e644765797365723a20756e7374616b6520616d6f756e7460408201527f2069732067726561746572207468616e20746f74616c2075736572207374616b606082015261657360f01b608082015260a00190565b60208082526029908201527f4261646765724765797365723a2062656e6566696369617279206973207a65726040820152686f206164647265737360b81b606082015260800190565b6020808252601d908201527f416464726573733a2063616c6c20746f206e6f6e2d636f6e7472616374000000604082015260600190565b6020808252602a908201527f5361666545524332303a204552433230206f7065726174696f6e20646964206e6040820152691bdd081cdd58d8d9595960b21b606082015260800190565b6020808252602f908201527f416363657373436f6e74726f6c3a2063616e206f6e6c792072656e6f756e636560408201526e103937b632b9903337b91039b2b63360891b606082015260800190565b60005b838110156119ae578181015183820152602001611996565b838111156103875750506000910152565b6001600160a01b0381168114610a7a57600080fdfea26469706673582212203f7f5263e99e4fa03950ebf3e815e9a969960a70fce10cd307bd8af245a01de964736f6c634300060c0033",
    "linkReferences": {},
    "deployedLinkReferences": {}
}