{
  "_format": "hh-sol-artifact-1",
  "contractName": "TokenGifter",
  "sourceName": "contracts/stakehound-timelock/mock/TokenGifter.sol",
  "abi": [
    {
      "inputs": [
        {
          "internalType": "contract IERC20Upgradeable",
          "name": "token",
          "type": "address"
        },
        {
          "internalType": "uint256",
          "name": "amount",
          "type": "uint256"
        }
      ],
      "name": "requestTransfer",
      "outputs": [],
      "stateMutability": "nonpayable",
      "type": "function"
    }
  ],
  "bytecode": "0x608060405234801561001057600080fd5b5061010a806100206000396000f3fe6080604052348015600f57600080fd5b506004361060285760003560e01c8063aa5fc79414602d575b600080fd5b605660048036036040811015604157600080fd5b506001600160a01b0381351690602001356058565b005b6040805163a9059cbb60e01b81523360048201526024810183905290516001600160a01b0384169163a9059cbb9160448083019260209291908290030181600087803b15801560a657600080fd5b505af115801560b9573d6000803e3d6000fd5b505050506040513d602081101560ce57600080fd5b5050505056fea26469706673582212209aad5c7e5ac04f6f6b8c152fb9eb12bdc27f86ba00305d03357c1cea7020cfa164736f6c634300060c0033",
  "linkReferences": {},
  "deployedLinkReferences": {}
}