{
  "_format": "hh-sol-artifact-1",
  "contractName": "StakedToken",
  "sourceName": "contracts/StakedToken.sol",
  "abi": [
    {
      "anonymous": false,
      "inputs": [
        {
          "indexed": true,
          "internalType": "address",
          "name": "owner",
          "type": "address"
        },
        {
          "indexed": true,
          "internalType": "address",
          "name": "spender",
          "type": "address"
        },
        {
          "indexed": false,
          "internalType": "uint256",
          "name": "value",
          "type": "uint256"
        }
      ],
      "name": "Approval",
      "type": "event"
    },
    {
      "anonymous": false,
      "inputs": [
        {
          "indexed": true,
          "internalType": "address",
          "name": "account",
          "type": "address"
        },
        {
          "indexed": false,
          "internalType": "bool",
          "name": "isBlacklisted",
          "type": "bool"
        }
      ],
      "name": "Blacklisted",
      "type": "event"
    },
    {
      "anonymous": false,
      "inputs": [
        {
          "indexed": false,
          "internalType": "address",
          "name": "supplyController",
          "type": "address"
        }
      ],
      "name": "LogSupplyControllerUpdated",
      "type": "event"
    },
    {
      "anonymous": false,
      "inputs": [
        {
          "indexed": false,
          "internalType": "uint256",
          "name": "oldTotalSupply",
          "type": "uint256"
        },
        {
          "indexed": false,
          "internalType": "uint256",
          "name": "supplyChange",
          "type": "uint256"
        },
        {
          "indexed": false,
          "internalType": "bool",
          "name": "positive",
          "type": "bool"
        },
        {
          "indexed": false,
          "internalType": "uint256",
          "name": "newTotalSupply",
          "type": "uint256"
        }
      ],
      "name": "LogTokenDistribution",
      "type": "event"
    },
    {
      "anonymous": false,
      "inputs": [
        {
          "indexed": true,
          "internalType": "address",
          "name": "previousOwner",
          "type": "address"
        },
        {
          "indexed": true,
          "internalType": "address",
          "name": "newOwner",
          "type": "address"
        }
      ],
      "name": "OwnershipTransferred",
      "type": "event"
    },
    {
      "anonymous": false,
      "inputs": [
        {
          "indexed": false,
          "internalType": "address",
          "name": "account",
          "type": "address"
        }
      ],
      "name": "Paused",
      "type": "event"
    },
    {
      "anonymous": false,
      "inputs": [
        {
          "indexed": true,
          "internalType": "address",
          "name": "from",
          "type": "address"
        },
        {
          "indexed": true,
          "internalType": "address",
          "name": "to",
          "type": "address"
        },
        {
          "indexed": false,
          "internalType": "uint256",
          "name": "value",
          "type": "uint256"
        }
      ],
      "name": "Transfer",
      "type": "event"
    },
    {
      "anonymous": false,
      "inputs": [
        {
          "indexed": false,
          "internalType": "address",
          "name": "account",
          "type": "address"
        }
      ],
      "name": "Unpaused",
      "type": "event"
    },
    {
      "anonymous": false,
      "inputs": [
        {
          "indexed": false,
          "internalType": "uint256",
          "name": "totalSupply",
          "type": "uint256"
        },
        {
          "indexed": false,
          "internalType": "uint256",
          "name": "totalShares",
          "type": "uint256"
        }
      ],
      "name": "WarningMaxExpectedSupplyExceeded",
      "type": "event"
    },
    {
      "inputs": [
        {
          "internalType": "address",
          "name": "destination",
          "type": "address"
        },
        {
          "internalType": "bytes",
          "name": "data",
          "type": "bytes"
        }
      ],
      "name": "addTransaction",
      "outputs": [
        {
          "internalType": "uint256",
          "name": "",
          "type": "uint256"
        }
      ],
      "stateMutability": "nonpayable",
      "type": "function"
    },
    {
      "inputs": [
        {
          "internalType": "address",
          "name": "owner_",
          "type": "address"
        },
        {
          "internalType": "address",
          "name": "spender",
          "type": "address"
        }
      ],
      "name": "allowance",
      "outputs": [
        {
          "internalType": "uint256",
          "name": "",
          "type": "uint256"
        }
      ],
      "stateMutability": "view",
      "type": "function"
    },
    {
      "inputs": [
        {
          "internalType": "address",
          "name": "spender",
          "type": "address"
        },
        {
          "internalType": "uint256",
          "name": "value",
          "type": "uint256"
        }
      ],
      "name": "approve",
      "outputs": [
        {
          "internalType": "bool",
          "name": "",
          "type": "bool"
        }
      ],
      "stateMutability": "nonpayable",
      "type": "function"
    },
    {
      "inputs": [
        {
          "internalType": "address",
          "name": "who",
          "type": "address"
        }
      ],
      "name": "balanceOf",
      "outputs": [
        {
          "internalType": "uint256",
          "name": "",
          "type": "uint256"
        }
      ],
      "stateMutability": "view",
      "type": "function"
    },
    {
      "inputs": [
        {
          "internalType": "uint256",
          "name": "amount",
          "type": "uint256"
        }
      ],
      "name": "burn",
      "outputs": [],
      "stateMutability": "nonpayable",
      "type": "function"
    },
    {
      "inputs": [],
      "name": "decimals",
      "outputs": [
        {
          "internalType": "uint8",
          "name": "",
          "type": "uint8"
        }
      ],
      "stateMutability": "view",
      "type": "function"
    },
    {
      "inputs": [
        {
          "internalType": "address",
          "name": "spender",
          "type": "address"
        },
        {
          "internalType": "uint256",
          "name": "subtractedValue",
          "type": "uint256"
        }
      ],
      "name": "decreaseAllowance",
      "outputs": [
        {
          "internalType": "bool",
          "name": "",
          "type": "bool"
        }
      ],
      "stateMutability": "nonpayable",
      "type": "function"
    },
    {
      "inputs": [
        {
          "internalType": "uint256",
          "name": "supplyChange_",
          "type": "uint256"
        },
        {
          "internalType": "bool",
          "name": "positive",
          "type": "bool"
        }
      ],
      "name": "distributeTokens",
      "outputs": [
        {
          "internalType": "uint256",
          "name": "",
          "type": "uint256"
        }
      ],
      "stateMutability": "nonpayable",
      "type": "function"
    },
    {
      "inputs": [],
      "name": "downstreamCaller",
      "outputs": [
        {
          "internalType": "contract DownstreamCaller",
          "name": "",
          "type": "address"
        }
      ],
      "stateMutability": "view",
      "type": "function"
    },
    {
      "inputs": [],
      "name": "downstreamCallerAddress",
      "outputs": [
        {
          "internalType": "address",
          "name": "",
          "type": "address"
        }
      ],
      "stateMutability": "view",
      "type": "function"
    },
    {
      "inputs": [
        {
          "internalType": "address",
          "name": "spender",
          "type": "address"
        },
        {
          "internalType": "uint256",
          "name": "addedValue",
          "type": "uint256"
        }
      ],
      "name": "increaseAllowance",
      "outputs": [
        {
          "internalType": "bool",
          "name": "",
          "type": "bool"
        }
      ],
      "stateMutability": "nonpayable",
      "type": "function"
    },
    {
      "inputs": [
        {
          "internalType": "string",
          "name": "name_",
          "type": "string"
        },
        {
          "internalType": "string",
          "name": "symbol_",
          "type": "string"
        },
        {
          "internalType": "uint8",
          "name": "decimals_",
          "type": "uint8"
        },
        {
          "internalType": "uint256",
          "name": "maxExpectedSupply_",
          "type": "uint256"
        },
        {
          "internalType": "uint256",
          "name": "initialSupply_",
          "type": "uint256"
        }
      ],
      "name": "initialize",
      "outputs": [],
      "stateMutability": "nonpayable",
      "type": "function"
    },
    {
      "inputs": [
        {
          "internalType": "address",
          "name": "",
          "type": "address"
        }
      ],
      "name": "isBlacklisted",
      "outputs": [
        {
          "internalType": "bool",
          "name": "",
          "type": "bool"
        }
      ],
      "stateMutability": "view",
      "type": "function"
    },
    {
      "inputs": [
        {
          "internalType": "address",
          "name": "account",
          "type": "address"
        },
        {
          "internalType": "uint256",
          "name": "amount",
          "type": "uint256"
        }
      ],
      "name": "mint",
      "outputs": [],
      "stateMutability": "nonpayable",
      "type": "function"
    },
    {
      "inputs": [],
      "name": "name",
      "outputs": [
        {
          "internalType": "string",
          "name": "",
          "type": "string"
        }
      ],
      "stateMutability": "view",
      "type": "function"
    },
    {
      "inputs": [],
      "name": "owner",
      "outputs": [
        {
          "internalType": "address",
          "name": "",
          "type": "address"
        }
      ],
      "stateMutability": "view",
      "type": "function"
    },
    {
      "inputs": [],
      "name": "pause",
      "outputs": [],
      "stateMutability": "nonpayable",
      "type": "function"
    },
    {
      "inputs": [],
      "name": "paused",
      "outputs": [
        {
          "internalType": "bool",
          "name": "",
          "type": "bool"
        }
      ],
      "stateMutability": "view",
      "type": "function"
    },
    {
      "inputs": [
        {
          "internalType": "uint256",
          "name": "index",
          "type": "uint256"
        }
      ],
      "name": "removeTransaction",
      "outputs": [],
      "stateMutability": "nonpayable",
      "type": "function"
    },
    {
      "inputs": [],
      "name": "renounceOwnership",
      "outputs": [],
      "stateMutability": "nonpayable",
      "type": "function"
    },
    {
      "inputs": [
        {
          "internalType": "address",
          "name": "account",
          "type": "address"
        },
        {
          "internalType": "bool",
          "name": "_isBlacklisted",
          "type": "bool"
        }
      ],
      "name": "setBlacklisted",
      "outputs": [],
      "stateMutability": "nonpayable",
      "type": "function"
    },
    {
      "inputs": [
        {
          "internalType": "contract DownstreamCaller",
          "name": "_downstreamCaller",
          "type": "address"
        }
      ],
      "name": "setDownstreamCaller",
      "outputs": [],
      "stateMutability": "nonpayable",
      "type": "function"
    },
    {
      "inputs": [
        {
          "internalType": "string",
          "name": "name_",
          "type": "string"
        }
      ],
      "name": "setName",
      "outputs": [],
      "stateMutability": "nonpayable",
      "type": "function"
    },
    {
      "inputs": [
        {
          "internalType": "address",
          "name": "supplyController_",
          "type": "address"
        }
      ],
      "name": "setSupplyController",
      "outputs": [],
      "stateMutability": "nonpayable",
      "type": "function"
    },
    {
      "inputs": [
        {
          "internalType": "string",
          "name": "symbol_",
          "type": "string"
        }
      ],
      "name": "setSymbol",
      "outputs": [],
      "stateMutability": "nonpayable",
      "type": "function"
    },
    {
      "inputs": [
        {
          "internalType": "uint256",
          "name": "index",
          "type": "uint256"
        },
        {
          "internalType": "bool",
          "name": "enabled",
          "type": "bool"
        }
      ],
      "name": "setTransactionEnabled",
      "outputs": [],
      "stateMutability": "nonpayable",
      "type": "function"
    },
    {
      "inputs": [
        {
          "internalType": "address",
          "name": "who",
          "type": "address"
        }
      ],
      "name": "sharesOf",
      "outputs": [
        {
          "internalType": "uint256",
          "name": "",
          "type": "uint256"
        }
      ],
      "stateMutability": "view",
      "type": "function"
    },
    {
      "inputs": [],
      "name": "supplyController",
      "outputs": [
        {
          "internalType": "address",
          "name": "",
          "type": "address"
        }
      ],
      "stateMutability": "view",
      "type": "function"
    },
    {
      "inputs": [],
      "name": "symbol",
      "outputs": [
        {
          "internalType": "string",
          "name": "",
          "type": "string"
        }
      ],
      "stateMutability": "view",
      "type": "function"
    },
    {
      "inputs": [],
      "name": "totalShares",
      "outputs": [
        {
          "internalType": "uint256",
          "name": "",
          "type": "uint256"
        }
      ],
      "stateMutability": "view",
      "type": "function"
    },
    {
      "inputs": [],
      "name": "totalSupply",
      "outputs": [
        {
          "internalType": "uint256",
          "name": "",
          "type": "uint256"
        }
      ],
      "stateMutability": "view",
      "type": "function"
    },
    {
      "inputs": [],
      "name": "transactionsSize",
      "outputs": [
        {
          "internalType": "uint256",
          "name": "",
          "type": "uint256"
        }
      ],
      "stateMutability": "view",
      "type": "function"
    },
    {
      "inputs": [
        {
          "internalType": "address",
          "name": "to",
          "type": "address"
        },
        {
          "internalType": "uint256",
          "name": "value",
          "type": "uint256"
        }
      ],
      "name": "transfer",
      "outputs": [
        {
          "internalType": "bool",
          "name": "",
          "type": "bool"
        }
      ],
      "stateMutability": "nonpayable",
      "type": "function"
    },
    {
      "inputs": [
        {
          "internalType": "address",
          "name": "from",
          "type": "address"
        },
        {
          "internalType": "address",
          "name": "to",
          "type": "address"
        },
        {
          "internalType": "uint256",
          "name": "value",
          "type": "uint256"
        }
      ],
      "name": "transferFrom",
      "outputs": [
        {
          "internalType": "bool",
          "name": "",
          "type": "bool"
        }
      ],
      "stateMutability": "nonpayable",
      "type": "function"
    },
    {
      "inputs": [
        {
          "internalType": "address",
          "name": "newOwner",
          "type": "address"
        }
      ],
      "name": "transferOwnership",
      "outputs": [],
      "stateMutability": "nonpayable",
      "type": "function"
    },
    {
      "inputs": [],
      "name": "unpause",
      "outputs": [],
      "stateMutability": "nonpayable",
      "type": "function"
    }
  ],
  "bytecode": "0x608060405234801561001057600080fd5b506138c6806100206000396000f3fe608060405234801561001057600080fd5b506004361061021c5760003560e01c806370a0823111610125578063aac1bd6b116100ad578063dd62ed3e1161007c578063dd62ed3e14610855578063e7ba101214610883578063f2fde38b1461088b578063f5eb42dc146108b1578063fe575a87146108d75761021c565b8063aac1bd6b14610743578063b84c82461461074b578063c47f0027146107b9578063d01dd6d2146108275761021c565b80638da5cb5b116100f45780638da5cb5b146106d357806391d4ec18146106db57806395d89b41146106e3578063a457c2d7146106eb578063a9059cbb146107175761021c565b806370a0823114610678578063715018a61461069e57806382b28cec146106a65780638456cb59146106cb5761021c565b806339509351116101a857806342966c681161017757806342966c68146105eb57806346c3bd1f1461060857806352875bc3146106255780635c975abb1461064b5780636e9dde99146106535761021c565b806339509351146105835780633a98ef39146105af5780633f4ba83a146105b757806340c10f19146105bf5761021c565b806318160ddd116101ef57806318160ddd146103cc5780631ceb16c6146103d45780631f7fd430146103f857806323b872dd1461052f578063313ce567146105655761021c565b806306fdde0314610221578063095ea7b31461029e5780630bbf1fcb146102de578063126e19be14610306575b600080fd5b6102296108fd565b6040805160208082528351818301528351919283929083019185019080838360005b8381101561026357818101518382015260200161024b565b50505050905090810190601f1680156102905780820380516001836020036101000a031916815260200191505b509250505060405180910390f35b6102ca600480360360408110156102b457600080fd5b506001600160a01b038135169060200135610993565b604080519115158252519081900360200190f35b610304600480360360208110156102f457600080fd5b50356001600160a01b0316610b05565b005b6103ba6004803603604081101561031c57600080fd5b6001600160a01b038235169190810190604081016020820135600160201b81111561034657600080fd5b82018360208201111561035857600080fd5b803590602001918460018302840111600160201b8311171561037957600080fd5b91908080601f016020809104026020016040519081016040528093929190818152602001838380828437600092019190915250929550610b7f945050505050565b60408051918252519081900360200190f35b6103ba610c84565b6103dc610c8a565b604080516001600160a01b039092168252519081900360200190f35b610304600480360360a081101561040e57600080fd5b810190602081018135600160201b81111561042857600080fd5b82018360208201111561043a57600080fd5b803590602001918460018302840111600160201b8311171561045b57600080fd5b91908080601f0160208091040260200160405190810160405280939291908181526020018383808284376000920191909152509295949360208101935035915050600160201b8111156104ad57600080fd5b8201836020820111156104bf57600080fd5b803590602001918460018302840111600160201b831117156104e057600080fd5b91908080601f0160208091040260200160405190810160405280939291908181526020018383808284376000920191909152509295505060ff8335169350505060208101359060400135610c99565b6102ca6004803603606081101561054557600080fd5b506001600160a01b03813581169160208101359091169060400135610e4f565b61056d6110c2565b6040805160ff9092168252519081900360200190f35b6102ca6004803603604081101561059957600080fd5b506001600160a01b0381351690602001356110cb565b6103ba611268565b61030461126e565b610304600480360360408110156105d557600080fd5b506001600160a01b03813516906020013561128f565b6103046004803603602081101561060157600080fd5b5035611470565b6103046004803603602081101561061e57600080fd5b5035611570565b6103046004803603602081101561063b57600080fd5b50356001600160a01b03166115ef565b6102ca6116ee565b6103046004803603604081101561066957600080fd5b508035906020013515156116f7565b6103ba6004803603602081101561068e57600080fd5b50356001600160a01b0316611777565b61030461179f565b6103ba600480360360408110156106bc57600080fd5b50803590602001351515611841565b610304611a0e565b6103dc611a2d565b6103ba611a3c565b610229611ab2565b6102ca6004803603604081101561070157600080fd5b506001600160a01b038135169060200135611b13565b6102ca6004803603604081101561072d57600080fd5b506001600160a01b038135169060200135611d06565b6103dc611efb565b6103046004803603602081101561076157600080fd5b810190602081018135600160201b81111561077b57600080fd5b82018360208201111561078d57600080fd5b803590602001918460018302840111600160201b831117156107ae57600080fd5b509092509050611f0a565b610304600480360360208110156107cf57600080fd5b810190602081018135600160201b8111156107e957600080fd5b8201836020820111156107fb57600080fd5b803590602001918460018302840111600160201b8311171561081c57600080fd5b509092509050611f73565b6103046004803603604081101561083d57600080fd5b506001600160a01b0381351690602001351515611fd7565b6103ba6004803603604081101561086b57600080fd5b506001600160a01b038135811691602001351661204e565b6103dc612079565b610304600480360360208110156108a157600080fd5b50356001600160a01b0316612088565b6103ba600480360360208110156108c757600080fd5b50356001600160a01b0316612181565b6102ca600480360360208110156108ed57600080fd5b50356001600160a01b031661219c565b60d18054604080516020601f60026000196101006001881615020190951694909404938401819004810282018101909252828152606093909290918301828280156109895780601f1061095e57610100808354040283529160200191610989565b820191906000526020600020905b81548152906001019060200180831161096c57829003601f168201915b5050505050905090565b33600090815260d4602052604081205460ff16156109ec576040805162461bcd60e51b81526020600482015260116024820152701bdddb995c88189b1858dadb1a5cdd1959607a1b604482015290519081900360640190fd5b6001600160a01b038316600090815260d4602052604090205460ff1615610a50576040805162461bcd60e51b81526020600482015260136024820152721cdc195b99195c88189b1858dadb1a5cdd1959606a1b604482015290519081900360640190fd5b6001600160a01b038316610a9d576040805162461bcd60e51b815260206004820152600f60248201526e696e76616c6964206164647265737360881b604482015290519081900360640190fd5b33600081815260d0602090815260408083206001600160a01b03881680855290835292819020869055805186815290519293927f8c5be1e5ebec7d5bd14f71427d1e84f3dd0314c0f7b2291e5b200ac8c7c3b925929181900390910190a35060015b92915050565b610b0d6121b1565b6065546001600160a01b03908116911614610b5d576040805162461bcd60e51b815260206004820181905260248201526000805160206137fc833981519152604482015290519081900360640190fd5b60d580546001600160a01b0319166001600160a01b0392909216919091179055565b60c9546000906001600160a01b03163314610b9957600080fd5b60d554604080516309370cdf60e11b81526001600160a01b038681166004830190815260248301938452865160448401528651919094169363126e19be9388938893606490910190602085019080838360005b83811015610c04578181015183820152602001610bec565b50505050905090810190601f168015610c315780820380516001836020036101000a031916815260200191505b509350505050602060405180830381600087803b158015610c5157600080fd5b505af1158015610c65573d6000803e3d6000fd5b505050506040513d6020811015610c7b57600080fd5b50519392505050565b60cd5490565b60d5546001600160a01b031681565b600054610100900460ff1680610cb25750610cb26121b5565b80610cc0575060005460ff16155b610cfb5760405162461bcd60e51b815260040180806020018281038252602e81526020018061381c602e913960400191505060405180910390fd5b600054610100900460ff16158015610d26576000805460ff1961ff0019909116610100171660011790555b610d2e6121bb565b610d3661226d565b60c980546001600160a01b031916331790558551610d5b9060d19060208901906128a7565b508451610d6f9060d29060208801906128a7565b5060d3805460ff191660ff861617905560001960ca819055610d91908461230a565b60cc81905560cb84905560cd839055610dab908390612353565b60ce81905533600090815260cf6020526040908190209190915551610dcf90612925565b604051809103906000f080158015610deb573d6000803e3d6000fd5b5060d580546001600160a01b0319166001600160a01b039290921691909117905560cd546040805191825251339160009160008051602061384a833981519152916020908290030190a38015610e47576000805461ff00191690555b505050505050565b6000826001600160a01b038116610e6557600080fd5b6001600160a01b038116301415610e7b57600080fd5b60975460ff1615610ec6576040805162461bcd60e51b815260206004820152601060248201526f14185d5cd8589b194e881c185d5cd95960821b604482015290519081900360640190fd5b6001600160a01b038516600090815260d4602052604090205460ff1615610f27576040805162461bcd60e51b815260206004820152601060248201526f199c9bdb48189b1858dadb1a5cdd195960821b604482015290519081900360640190fd5b6001600160a01b038416600090815260d4602052604090205460ff1615610f86576040805162461bcd60e51b815260206004820152600e60248201526d1d1bc8189b1858dadb1a5cdd195960921b604482015290519081900360640190fd5b610fce836040518060600160405280602181526020016137ba602191396001600160a01b038816600090815260d06020908152604080832033845290915290205491906123ac565b6001600160a01b038616600090815260d06020908152604080832033845290915281209190915560cc54611003908590612353565b90506110428160405180606001604052806027815260200161386a602791396001600160a01b038916600090815260cf602052604090205491906123ac565b6001600160a01b03808816600090815260cf602052604080822093909355908716815220546110719082612443565b6001600160a01b03808716600081815260cf602090815260409182902094909455805188815290519193928a169260008051602061384a83398151915292918290030190a350600195945050505050565b60d35460ff1690565b33600090815260d4602052604081205460ff1615611124576040805162461bcd60e51b81526020600482015260116024820152701bdddb995c88189b1858dadb1a5cdd1959607a1b604482015290519081900360640190fd5b6001600160a01b038316600090815260d4602052604090205460ff1615611188576040805162461bcd60e51b81526020600482015260136024820152721cdc195b99195c88189b1858dadb1a5cdd1959606a1b604482015290519081900360640190fd5b6001600160a01b0383166111d5576040805162461bcd60e51b815260206004820152600f60248201526e696e76616c6964206164647265737360881b604482015290519081900360640190fd5b33600090815260d0602090815260408083206001600160a01b03871684529091529020546112039083612443565b33600081815260d0602090815260408083206001600160a01b0389168085529083529281902085905580519485525191937f8c5be1e5ebec7d5bd14f71427d1e84f3dd0314c0f7b2291e5b200ac8c7c3b925929081900390910190a350600192915050565b60ce5490565b60c9546001600160a01b0316331461128557600080fd5b61128d61249d565b565b60c9546001600160a01b031633146112a657600080fd5b816001600160a01b0381166112ba57600080fd5b6001600160a01b0381163014156112d057600080fd5b6001600160a01b038316600090815260d4602052604090205460ff1615611334576040805162461bcd60e51b81526020600482015260136024820152721858d8dbdd5b9d08189b1858dadb1a5cdd1959606a1b604482015290519081900360640190fd5b6001600160a01b038316611381576040805162461bcd60e51b815260206004820152600f60248201526e696e76616c6964206164647265737360881b604482015290519081900360640190fd5b60cd5461138e9083612443565b60cd5560cc546000906113a2908490612353565b60ce549091506113b29082612443565b60ce556001600160a01b038416600090815260cf60205260409020546113d89082612443565b6001600160a01b038516600081815260cf6020908152604080832094909455835187815293519293919260008051602061384a8339815191529281900390910190a360cb5460cd54111561146a577f3cef0bbbb1b0cf93c71257e0adf8af9baad72ad5d364fdaad1fb7b114724a5b160cd5460ce54604051808381526020018281526020019250505060405180910390a15b50505050565b60c9546001600160a01b0316331461148757600080fd5b600061149e60cc548361235390919063ffffffff16565b604080518082018252601b81527f6275726e20616d6f756e7420657863656564732062616c616e6365000000000060208083019190915260c9546001600160a01b0316600090815260cf90915291909120549192506114ff919083906123ac565b60c9546001600160a01b0316600090815260cf602052604090205560ce54611527908261253b565b60ce5560cd54611537908361253b565b60cd5560c9546040805184815290516000926001600160a01b03169160008051602061384a833981519152919081900360200190a35050565b60c9546001600160a01b0316331461158757600080fd5b60d554604080516346c3bd1f60e01b81526004810184905290516001600160a01b03909216916346c3bd1f9160248082019260009290919082900301818387803b1580156115d457600080fd5b505af11580156115e8573d6000803e3d6000fd5b5050505050565b6115f76121b1565b6065546001600160a01b03908116911614611647576040805162461bcd60e51b815260206004820181905260248201526000805160206137fc833981519152604482015290519081900360640190fd5b6001600160a01b038116611694576040805162461bcd60e51b815260206004820152600f60248201526e696e76616c6964206164647265737360881b604482015290519081900360640190fd5b60c980546001600160a01b0319166001600160a01b03838116919091179182905560408051929091168252517f029a507d186991fa7c3a83eff39b1586a07b8af908075fd0a86a6cb199a211be916020908290030190a150565b60975460ff1690565b60c9546001600160a01b0316331461170e57600080fd5b60d55460408051636e9dde9960e01b815260048101859052831515602482015290516001600160a01b0390921691636e9dde999160448082019260009290919082900301818387803b15801561176357600080fd5b505af1158015610e47573d6000803e3d6000fd5b60cc546001600160a01b038216600090815260cf60205260408120549091610aff919061230a565b6117a76121b1565b6065546001600160a01b039081169116146117f7576040805162461bcd60e51b815260206004820181905260248201526000805160206137fc833981519152604482015290519081900360640190fd5b6065546040516000916001600160a01b0316907f8be0079c531659141344cd1fd0a4f28419497f9722a3daafe3b4186f6b6457e0908390a3606580546001600160a01b0319169055565b60c9546000906001600160a01b0316331461185b57600080fd5b600082156118775760cd546118709085612443565b9050611887565b60cd54611884908561253b565b90505b600081116118dc576040805162461bcd60e51b815260206004820152601b60248201527f7265626173652063616e6e6f74206d616b6520737570706c7920300000000000604482015290519081900360640190fd5b60ce546118e9908261230a565b60cc81905560ce546118fa9161230a565b60cd5460408051918252602082018790528515158282015260608201839052519192507f6a993e60d005c1fea92525dd1a0ed99998c6a2f570717071e76f5237025f6bdc919081900360800190a160cd81905560cb5481111561199b577f3cef0bbbb1b0cf93c71257e0adf8af9baad72ad5d364fdaad1fb7b114724a5b160cd5460ce54604051808381526020018281526020019250505060405180910390a15b60d560009054906101000a90046001600160a01b03166001600160a01b031663069549bc6040518163ffffffff1660e01b8152600401600060405180830381600087803b1580156119eb57600080fd5b505af11580156119ff573d6000803e3d6000fd5b505060cd549695505050505050565b60c9546001600160a01b03163314611a2557600080fd5b61128d61257d565b6065546001600160a01b031690565b60d5546040805163123a9d8360e31b815290516000926001600160a01b0316916391d4ec18916004808301926020929190829003018186803b158015611a8157600080fd5b505afa158015611a95573d6000803e3d6000fd5b505050506040513d6020811015611aab57600080fd5b5051905090565b60d28054604080516020601f60026000196101006001881615020190951694909404938401819004810282018101909252828152606093909290918301828280156109895780601f1061095e57610100808354040283529160200191610989565b33600090815260d4602052604081205460ff1615611b6c576040805162461bcd60e51b81526020600482015260116024820152701bdddb995c88189b1858dadb1a5cdd1959607a1b604482015290519081900360640190fd5b6001600160a01b038316600090815260d4602052604090205460ff1615611bd0576040805162461bcd60e51b81526020600482015260136024820152721cdc195b99195c88189b1858dadb1a5cdd1959606a1b604482015290519081900360640190fd5b6001600160a01b038316611c1d576040805162461bcd60e51b815260206004820152600f60248201526e696e76616c6964206164647265737360881b604482015290519081900360640190fd5b33600090815260d0602090815260408083206001600160a01b0387168452909152902054808310611c715733600090815260d0602090815260408083206001600160a01b0388168452909152812055611ca0565b611c7b818461253b565b33600090815260d0602090815260408083206001600160a01b03891684529091529020555b33600081815260d0602090815260408083206001600160a01b0389168085529083529281902054815190815290519293927f8c5be1e5ebec7d5bd14f71427d1e84f3dd0314c0f7b2291e5b200ac8c7c3b925929181900390910190a35060019392505050565b6000826001600160a01b038116611d1c57600080fd5b6001600160a01b038116301415611d3257600080fd5b60975460ff1615611d7d576040805162461bcd60e51b815260206004820152601060248201526f14185d5cd8589b194e881c185d5cd95960821b604482015290519081900360640190fd5b33600090815260d4602052604090205460ff1615611dd5576040805162461bcd60e51b815260206004820152601060248201526f199c9bdb48189b1858dadb1a5cdd195960821b604482015290519081900360640190fd5b6001600160a01b038416600090815260d4602052604090205460ff1615611e34576040805162461bcd60e51b815260206004820152600e60248201526d1d1bc8189b1858dadb1a5cdd195960921b604482015290519081900360640190fd5b6000611e4b60cc548561235390919063ffffffff16565b9050611e81816040518060600160405280602681526020016137946026913933600090815260cf602052604090205491906123ac565b33600090815260cf6020526040808220929092556001600160a01b03871681522054611ead9082612443565b6001600160a01b038616600081815260cf602090815260409182902093909355805187815290519192339260008051602061384a8339815191529281900390910190a3506001949350505050565b60d5546001600160a01b031690565b611f126121b1565b6065546001600160a01b03908116911614611f62576040805162461bcd60e51b815260206004820181905260248201526000805160206137fc833981519152604482015290519081900360640190fd5b611f6e60d28383612932565b505050565b611f7b6121b1565b6065546001600160a01b03908116911614611fcb576040805162461bcd60e51b815260206004820181905260248201526000805160206137fc833981519152604482015290519081900360640190fd5b611f6e60d18383612932565b60c9546001600160a01b03163314611fee57600080fd5b6001600160a01b038216600081815260d46020908152604091829020805460ff1916851515908117909155825190815291517fcf3473b85df1594d47b6958f29a32bea0abff9dd68296f7bf33443646793cfd89281900390910190a25050565b6001600160a01b03918216600090815260d06020908152604080832093909416825291909152205490565b60c9546001600160a01b031681565b6120906121b1565b6065546001600160a01b039081169116146120e0576040805162461bcd60e51b815260206004820181905260248201526000805160206137fc833981519152604482015290519081900360640190fd5b6001600160a01b0381166121255760405162461bcd60e51b815260040180806020018281038252602681526020018061376e6026913960400191505060405180910390fd5b6065546040516001600160a01b038084169216907f8be0079c531659141344cd1fd0a4f28419497f9722a3daafe3b4186f6b6457e090600090a3606580546001600160a01b0319166001600160a01b0392909216919091179055565b6001600160a01b0316600090815260cf602052604090205490565b60d46020526000908152604090205460ff1681565b3390565b303b1590565b600054610100900460ff16806121d457506121d46121b5565b806121e2575060005460ff16155b61221d5760405162461bcd60e51b815260040180806020018281038252602e81526020018061381c602e913960400191505060405180910390fd5b600054610100900460ff16158015612248576000805460ff1961ff0019909116610100171660011790555b6122506125fe565b61225861269e565b801561226a576000805461ff00191690555b50565b600054610100900460ff168061228657506122866121b5565b80612294575060005460ff16155b6122cf5760405162461bcd60e51b815260040180806020018281038252602e81526020018061381c602e913960400191505060405180910390fd5b600054610100900460ff161580156122fa576000805460ff1961ff0019909116610100171660011790555b6123026125fe565b612258612797565b600061234c83836040518060400160405280601a81526020017f536166654d6174683a206469766973696f6e206279207a65726f000000000000815250612842565b9392505050565b60008261236257506000610aff565b8282028284828161236f57fe5b041461234c5760405162461bcd60e51b81526004018080602001828103825260218152602001806137db6021913960400191505060405180910390fd5b6000818484111561243b5760405162461bcd60e51b81526004018080602001828103825283818151815260200191508051906020019080838360005b838110156124005781810151838201526020016123e8565b50505050905090810190601f16801561242d5780820380516001836020036101000a031916815260200191505b509250505060405180910390fd5b505050900390565b60008282018381101561234c576040805162461bcd60e51b815260206004820152601b60248201527f536166654d6174683a206164646974696f6e206f766572666c6f770000000000604482015290519081900360640190fd5b60975460ff166124eb576040805162461bcd60e51b815260206004820152601460248201527314185d5cd8589b194e881b9bdd081c185d5cd95960621b604482015290519081900360640190fd5b6097805460ff191690557f5db9ee0a495bf2e6ff9c91a7834c1ba4fdd244a5e8aa4e537bd38aeae4b073aa61251e6121b1565b604080516001600160a01b039092168252519081900360200190a1565b600061234c83836040518060400160405280601e81526020017f536166654d6174683a207375627472616374696f6e206f766572666c6f7700008152506123ac565b60975460ff16156125c8576040805162461bcd60e51b815260206004820152601060248201526f14185d5cd8589b194e881c185d5cd95960821b604482015290519081900360640190fd5b6097805460ff191660011790557f62e78cea01bee320cd4e420270b5ea74000d11b0c9f74754ebdbfc544b05a25861251e6121b1565b600054610100900460ff168061261757506126176121b5565b80612625575060005460ff16155b6126605760405162461bcd60e51b815260040180806020018281038252602e81526020018061381c602e913960400191505060405180910390fd5b600054610100900460ff16158015612258576000805460ff1961ff001990911661010017166001179055801561226a576000805461ff001916905550565b600054610100900460ff16806126b757506126b76121b5565b806126c5575060005460ff16155b6127005760405162461bcd60e51b815260040180806020018281038252602e81526020018061381c602e913960400191505060405180910390fd5b600054610100900460ff1615801561272b576000805460ff1961ff0019909116610100171660011790555b60006127356121b1565b606580546001600160a01b0319166001600160a01b038316908117909155604051919250906000907f8be0079c531659141344cd1fd0a4f28419497f9722a3daafe3b4186f6b6457e0908290a350801561226a576000805461ff001916905550565b600054610100900460ff16806127b057506127b06121b5565b806127be575060005460ff16155b6127f95760405162461bcd60e51b815260040180806020018281038252602e81526020018061381c602e913960400191505060405180910390fd5b600054610100900460ff16158015612824576000805460ff1961ff0019909116610100171660011790555b6097805460ff19169055801561226a576000805461ff001916905550565b600081836128915760405162461bcd60e51b81526020600482018181528351602484015283519092839260449091019190850190808383600083156124005781810151838201526020016123e8565b50600083858161289d57fe5b0495945050505050565b828054600181600116156101000203166002900490600052602060002090601f016020900481019282601f106128e857805160ff1916838001178555612915565b82800160010185558215612915579182015b828111156129155782518255916020019190600101906128fa565b506129219291506129a0565b5090565b610db8806129b683390190565b828054600181600116156101000203166002900490600052602060002090601f016020900481019282601f106129735782800160ff19823516178555612915565b82800160010185558215612915579182015b82811115612915578235825591602001919060010190612985565b5b8082111561292157600081556001016129a156fe608060405234801561001057600080fd5b50600061001b61006a565b600080546001600160a01b0319166001600160a01b0383169081178255604051929350917f8be0079c531659141344cd1fd0a4f28419497f9722a3daafe3b4186f6b6457e0908290a35061006e565b3390565b610d3b8061007d6000396000f3fe608060405234801561001057600080fd5b50600436106100935760003560e01c8063715018a611610066578063715018a6146101ac5780638da5cb5b146101b457806391d4ec18146101d85780639ace38c2146101e0578063f2fde38b1461028e57610093565b8063069549bc14610098578063126e19be146100a257806346c3bd1f1461016a5780636e9dde9914610187575b600080fd5b6100a06102b4565b005b610158600480360360408110156100b857600080fd5b6001600160a01b0382351691908101906040810160208201356401000000008111156100e357600080fd5b8201836020820111156100f557600080fd5b8035906020019184600183028401116401000000008311171561011757600080fd5b91908080601f01602080910402602001604051908101604052809392919081815260200183838082843760009201919091525092955061050d945050505050565b60408051918252519081900360200190f35b6100a06004803603602081101561018057600080fd5b5035610653565b6100a06004803603604081101561019d57600080fd5b508035906020013515156107eb565b6100a06108b4565b6101bc610956565b604080516001600160a01b039092168252519081900360200190f35b610158610965565b6101fd600480360360208110156101f657600080fd5b503561096b565b604051808415158152602001836001600160a01b0316815260200180602001828103825283818151815260200191508051906020019080838360005b83811015610251578181015183820152602001610239565b50505050905090810190601f16801561027e5780820380516001836020036101000a031916815260200191505b5094505050505060405180910390f35b6100a0600480360360208110156102a457600080fd5b50356001600160a01b0316610a30565b6102bc610b28565b6000546001600160a01b0390811691161461030c576040805162461bcd60e51b81526020600482018190526024820152600080516020610ce6833981519152604482015290519081900360640190fd5b60005b60015481101561050a5760006001828154811061032857fe5b60009182526020909120600290910201805490915060ff16156105015780546001808301805460408051602060026101009685161587026000190190941693909304601f81018490048402820184019092528181526000956103f09590046001600160a01b03169390929091908301828280156103e65780601f106103bb576101008083540402835291602001916103e6565b820191906000526020600020905b8154815290600101906020018083116103c957829003601f168201915b5050505050610b2c565b9050806104ff5781546040805185815260208101828152600180870180546002610100938216158402600019019091160494840185905294046001600160a01b0316937f8091ecaaa54ebb82e02d36c2c336528e0fcb9b3430fc1291ac88295032b9c2639388939192906060830190849080156104ae5780601f10610483576101008083540402835291602001916104ae565b820191906000526020600020905b81548152906001019060200180831161049157829003601f168201915b5050935050505060405180910390a26040805162461bcd60e51b8152602060048201526012602482015271151c985b9cd858dd1a5bdb8811985a5b195960721b604482015290519081900360640190fd5b505b5060010161030f565b50565b6000610517610b28565b6000546001600160a01b03908116911614610567576040805162461bcd60e51b81526020600482018190526024820152600080516020610ce6833981519152604482015290519081900360640190fd5b6001600160a01b03831661057a57600080fd5b815161058557600080fd5b60018054604080516060810182528381526001600160a01b03808816602080840191825293830188815285870187556000969096528251600286027fb10e2d527612073b26eecdfd717e6a320cf44b4afac2b0732d9fcbe2b7fa0cf681018054935190941661010002610100600160a81b031992151560ff19909416939093179190911691909117825594518051949592949193610648937fb10e2d527612073b26eecdfd717e6a320cf44b4afac2b0732d9fcbe2b7fa0cf70192910190610b4f565b509195945050505050565b61065b610b28565b6000546001600160a01b039081169116146106ab576040805162461bcd60e51b81526020600482018190526024820152600080516020610ce6833981519152604482015290519081900360640190fd5b60015481106106f7576040805162461bcd60e51b8152602060048201526013602482015272696e646578206f7574206f6620626f756e647360681b604482015290519081900360640190fd5b600154600019018110156107a85760018054600019810190811061071757fe5b90600052602060002090600202016001828154811061073257fe5b6000918252602090912082546002928302909101805460ff191660ff9092161515919091178082558354610100600160a81b0319909116610100918290046001600160a01b031682021782556001808501805493946107a4948387019492938116159092026000190190911604610bcd565b5050505b60018054806107b357fe5b60008281526020812060026000199093019283020180546001600160a81b0319168155906107e46001830182610c42565b5050905550565b6107f3610b28565b6000546001600160a01b03908116911614610843576040805162461bcd60e51b81526020600482018190526024820152600080516020610ce6833981519152604482015290519081900360640190fd5b60015482106108835760405162461bcd60e51b8152600401808060200182810382526028815260200180610cbe6028913960400191505060405180910390fd5b806001838154811061089157fe5b60009182526020909120600290910201805460ff19169115159190911790555050565b6108bc610b28565b6000546001600160a01b0390811691161461090c576040805162461bcd60e51b81526020600482018190526024820152600080516020610ce6833981519152604482015290519081900360640190fd5b600080546040516001600160a01b03909116907f8be0079c531659141344cd1fd0a4f28419497f9722a3daafe3b4186f6b6457e0908390a3600080546001600160a01b0319169055565b6000546001600160a01b031690565b60015490565b6001818154811061097857fe5b6000918252602091829020600291820201805460018083018054604080516101009483161585026000190190921696909604601f810188900488028201880190965285815260ff84169750919092046001600160a01b03169492939092830182828015610a265780601f106109fb57610100808354040283529160200191610a26565b820191906000526020600020905b815481529060010190602001808311610a0957829003601f168201915b5050505050905083565b610a38610b28565b6000546001600160a01b03908116911614610a88576040805162461bcd60e51b81526020600482018190526024820152600080516020610ce6833981519152604482015290519081900360640190fd5b6001600160a01b038116610acd5760405162461bcd60e51b8152600401808060200182810382526026815260200180610c986026913960400191505060405180910390fd5b600080546040516001600160a01b03808516939216917f8be0079c531659141344cd1fd0a4f28419497f9722a3daafe3b4186f6b6457e091a3600080546001600160a01b0319166001600160a01b0392909216919091179055565b3390565b6000806040516020840160008286518360008a6187965a03f19695505050505050565b828054600181600116156101000203166002900490600052602060002090601f016020900481019282601f10610b9057805160ff1916838001178555610bbd565b82800160010185558215610bbd579182015b82811115610bbd578251825591602001919060010190610ba2565b50610bc9929150610c82565b5090565b828054600181600116156101000203166002900490600052602060002090601f016020900481019282601f10610c065780548555610bbd565b82800160010185558215610bbd57600052602060002091601f016020900482015b82811115610bbd578254825591600101919060010190610c27565b50805460018160011615610100020316600290046000825580601f10610c68575061050a565b601f01602090049060005260206000209081019061050a91905b5b80821115610bc95760008155600101610c8356fe4f776e61626c653a206e6577206f776e657220697320746865207a65726f2061646472657373696e646578206d75737420626520696e2072616e6765206f662073746f726564207478206c6973744f776e61626c653a2063616c6c6572206973206e6f7420746865206f776e6572a26469706673582212206443b814b415039cf5496137eb92d56b37ed4fda41b5a3737556c3097dd6a19a64736f6c634300060c00334f776e61626c653a206e6577206f776e657220697320746865207a65726f20616464726573737472616e7366657220616d6f756e7420657863656564206163636f756e742062616c616e63657472616e7366657220616d6f756e74206578636565647320616c6c6f77616e6365536166654d6174683a206d756c7469706c69636174696f6e206f766572666c6f774f776e61626c653a2063616c6c6572206973206e6f7420746865206f776e6572436f6e747261637420696e7374616e63652068617320616c7265616479206265656e20696e697469616c697a6564ddf252ad1be2c89b69c2b068fc378daa952ba7f163c4a11628f55a4df523b3ef7472616e7366657220616d6f756e742065786365656473206163636f756e742062616c616e6365a2646970667358221220ce04f3bda712ea76e9d627456c97aec8a6e363c1b59c1e06a8eba29356fd459764736f6c634300060c0033",
  "linkReferences": {},
  "deployedLinkReferences": {}
}