{
  "_format": "hh-sol-artifact-1",
  "contractName": "ForceEther",
  "sourceName": "contracts/mock/ForceEther.sol",
  "abi": [
    {
      "inputs": [
        {
          "internalType": "address payable",
          "name": "recipient",
          "type": "address"
        }
      ],
      "name": "forceSend",
      "outputs": [],
      "stateMutability": "nonpayable",
      "type": "function"
    },
    {
      "stateMutability": "payable",
      "type": "receive"
    }
  ],
  "bytecode": "0x6080604052348015600f57600080fd5b50609d8061001e6000396000f3fe608060405260043610601f5760003560e01c8063f2adf1cb14602a576025565b36602557005b600080fd5b348015603557600080fd5b50605960048036036020811015604a57600080fd5b50356001600160a01b0316605b565b005b806001600160a01b0316fffea264697066735822122029550523a08c1b31a823c9c45819167e82ba556163f78f8a7cdaf82610d464c664736f6c634300060c0033",
  "linkReferences": {},
  "deployedLinkReferences": {}
}