{
    "_format": "hh-sol-artifact-1",
    "contractName": "Multiplexer",
    "sourceName": "contracts/stakehound-geyser/Multiplexer.sol",
    "abi": [
        {
            "anonymous": false,
            "inputs": [
                {
                    "indexed": true,
                    "internalType": "address",
                    "name": "user",
                    "type": "address"
                },
                {
                    "indexed": true,
                    "internalType": "address",
                    "name": "token",
                    "type": "address"
                },
                {
                    "indexed": false,
                    "internalType": "uint256",
                    "name": "amount",
                    "type": "uint256"
                },
                {
                    "indexed": true,
                    "internalType": "uint256",
                    "name": "cycle",
                    "type": "uint256"
                },
                {
                    "indexed": false,
                    "internalType": "uint256",
                    "name": "timestamp",
                    "type": "uint256"
                },
                {
                    "indexed": false,
                    "internalType": "uint256",
                    "name": "blockNumber",
                    "type": "uint256"
                }
            ],
            "name": "Claimed",
            "type": "event"
        },
        {
            "anonymous": false,
            "inputs": [
                {
                    "indexed": true,
                    "internalType": "bytes32",
                    "name": "root",
                    "type": "bytes32"
                }
            ],
            "name": "InsufficientFundsForRoot",
            "type": "event"
        },
        {
            "anonymous": false,
            "inputs": [
                {
                    "indexed": false,
                    "internalType": "address",
                    "name": "account",
                    "type": "address"
                }
            ],
            "name": "Paused",
            "type": "event"
        },
        {
            "anonymous": false,
            "inputs": [
                {
                    "indexed": true,
                    "internalType": "bytes32",
                    "name": "role",
                    "type": "bytes32"
                },
                {
                    "indexed": true,
                    "internalType": "bytes32",
                    "name": "previousAdminRole",
                    "type": "bytes32"
                },
                {
                    "indexed": true,
                    "internalType": "bytes32",
                    "name": "newAdminRole",
                    "type": "bytes32"
                }
            ],
            "name": "RoleAdminChanged",
            "type": "event"
        },
        {
            "anonymous": false,
            "inputs": [
                {
                    "indexed": true,
                    "internalType": "bytes32",
                    "name": "role",
                    "type": "bytes32"
                },
                {
                    "indexed": true,
                    "internalType": "address",
                    "name": "account",
                    "type": "address"
                },
                {
                    "indexed": true,
                    "internalType": "address",
                    "name": "sender",
                    "type": "address"
                }
            ],
            "name": "RoleGranted",
            "type": "event"
        },
        {
            "anonymous": false,
            "inputs": [
                {
                    "indexed": true,
                    "internalType": "bytes32",
                    "name": "role",
                    "type": "bytes32"
                },
                {
                    "indexed": true,
                    "internalType": "address",
                    "name": "account",
                    "type": "address"
                },
                {
                    "indexed": true,
                    "internalType": "address",
                    "name": "sender",
                    "type": "address"
                }
            ],
            "name": "RoleRevoked",
            "type": "event"
        },
        {
            "anonymous": false,
            "inputs": [
                {
                    "indexed": false,
                    "internalType": "uint256",
                    "name": "cycle",
                    "type": "uint256"
                },
                {
                    "indexed": false,
                    "internalType": "bytes32",
                    "name": "root",
                    "type": "bytes32"
                },
                {
                    "indexed": false,
                    "internalType": "bytes32",
                    "name": "contentHash",
                    "type": "bytes32"
                },
                {
                    "indexed": false,
                    "internalType": "uint256",
                    "name": "endBlock",
                    "type": "uint256"
                }
            ],
            "name": "RootProposed",
            "type": "event"
        },
        {
            "anonymous": false,
            "inputs": [
                {
                    "indexed": false,
                    "internalType": "uint256",
                    "name": "cycle",
                    "type": "uint256"
                },
                {
                    "indexed": false,
                    "internalType": "bytes32",
                    "name": "root",
                    "type": "bytes32"
                },
                {
                    "indexed": false,
                    "internalType": "bytes32",
                    "name": "contentHash",
                    "type": "bytes32"
                },
                {
                    "indexed": false,
                    "internalType": "uint256",
                    "name": "endBlock",
                    "type": "uint256"
                }
            ],
            "name": "RootValidated",
            "type": "event"
        },
        {
            "anonymous": false,
            "inputs": [
                {
                    "indexed": false,
                    "internalType": "address",
                    "name": "account",
                    "type": "address"
                }
            ],
            "name": "Unpaused",
            "type": "event"
        },
        {
            "inputs": [],
            "name": "DEFAULT_ADMIN_ROLE",
            "outputs": [
                {
                    "internalType": "bytes32",
                    "name": "",
                    "type": "bytes32"
                }
            ],
            "stateMutability": "view",
            "type": "function"
        },
        {
            "inputs": [],
            "name": "PAUSER_ROLE",
            "outputs": [
                {
                    "internalType": "bytes32",
                    "name": "",
                    "type": "bytes32"
                }
            ],
            "stateMutability": "view",
            "type": "function"
        },
        {
            "inputs": [],
            "name": "ROOT_PROPOSER_ROLE",
            "outputs": [
                {
                    "internalType": "bytes32",
                    "name": "",
                    "type": "bytes32"
                }
            ],
            "stateMutability": "view",
            "type": "function"
        },
        {
            "inputs": [],
            "name": "ROOT_VALIDATOR_ROLE",
            "outputs": [
                {
                    "internalType": "bytes32",
                    "name": "",
                    "type": "bytes32"
                }
            ],
            "stateMutability": "view",
            "type": "function"
        },
        {
            "inputs": [],
            "name": "UNPAUSER_ROLE",
            "outputs": [
                {
                    "internalType": "bytes32",
                    "name": "",
                    "type": "bytes32"
                }
            ],
            "stateMutability": "view",
            "type": "function"
        },
        {
            "inputs": [
                {
                    "internalType": "bytes32",
                    "name": "root",
                    "type": "bytes32"
                },
                {
                    "internalType": "bytes32",
                    "name": "contentHash",
                    "type": "bytes32"
                },
                {
                    "internalType": "uint256",
                    "name": "cycle",
                    "type": "uint256"
                },
                {
                    "internalType": "uint256",
                    "name": "endBlock",
                    "type": "uint256"
                }
            ],
            "name": "approveRoot",
            "outputs": [],
            "stateMutability": "nonpayable",
            "type": "function"
        },
        {
            "inputs": [
                {
                    "internalType": "address[]",
                    "name": "tokens",
                    "type": "address[]"
                },
                {
                    "internalType": "uint256[]",
                    "name": "cumulativeAmounts",
                    "type": "uint256[]"
                },
                {
                    "internalType": "uint256[]",
                    "name": "cumulativeStAmounts",
                    "type": "uint256[]"
                },
                {
                    "internalType": "uint256",
                    "name": "cycle",
                    "type": "uint256"
                },
                {
                    "internalType": "bytes32[]",
                    "name": "merkleProof",
                    "type": "bytes32[]"
                }
            ],
            "name": "claim",
            "outputs": [],
            "stateMutability": "nonpayable",
            "type": "function"
        },
        {
            "inputs": [
                {
                    "internalType": "address",
                    "name": "",
                    "type": "address"
                },
                {
                    "internalType": "address",
                    "name": "",
                    "type": "address"
                }
            ],
            "name": "claimed",
            "outputs": [
                {
                    "internalType": "uint256",
                    "name": "",
                    "type": "uint256"
                }
            ],
            "stateMutability": "view",
            "type": "function"
        },
        {
            "inputs": [
                {
                    "internalType": "address[]",
                    "name": "tokens",
                    "type": "address[]"
                },
                {
                    "internalType": "uint256[]",
                    "name": "cumulativeAmounts",
                    "type": "uint256[]"
                },
                {
                    "internalType": "uint256[]",
                    "name": "cumulativeStAmounts",
                    "type": "uint256[]"
                },
                {
                    "internalType": "address",
                    "name": "account",
                    "type": "address"
                },
                {
                    "internalType": "uint256",
                    "name": "cycle",
                    "type": "uint256"
                }
            ],
            "name": "encodeClaim",
            "outputs": [
                {
                    "internalType": "bytes",
                    "name": "encoded",
                    "type": "bytes"
                },
                {
                    "internalType": "bytes32",
                    "name": "hash",
                    "type": "bytes32"
                }
            ],
            "stateMutability": "view",
            "type": "function"
        },
        {
            "inputs": [
                {
                    "internalType": "address",
                    "name": "user",
                    "type": "address"
                },
                {
                    "internalType": "address[]",
                    "name": "tokens",
                    "type": "address[]"
                }
            ],
            "name": "getClaimedFor",
            "outputs": [
                {
                    "internalType": "address[]",
                    "name": "",
                    "type": "address[]"
                },
                {
                    "internalType": "uint256[]",
                    "name": "",
                    "type": "uint256[]"
                }
            ],
            "stateMutability": "view",
            "type": "function"
        },
        {
            "inputs": [],
            "name": "getCurrentMerkleData",
            "outputs": [
                {
                    "components": [
                        {
                            "internalType": "bytes32",
                            "name": "root",
                            "type": "bytes32"
                        },
                        {
                            "internalType": "bytes32",
                            "name": "contentHash",
                            "type": "bytes32"
                        },
                        {
                            "internalType": "uint256",
                            "name": "cycle",
                            "type": "uint256"
                        },
                        {
                            "internalType": "uint256",
                            "name": "endBlock",
                            "type": "uint256"
                        }
                    ],
                    "internalType": "struct Multiplexer.MerkleData",
                    "name": "",
                    "type": "tuple"
                }
            ],
            "stateMutability": "view",
            "type": "function"
        },
        {
            "inputs": [],
            "name": "getPendingMerkleData",
            "outputs": [
                {
                    "components": [
                        {
                            "internalType": "bytes32",
                            "name": "root",
                            "type": "bytes32"
                        },
                        {
                            "internalType": "bytes32",
                            "name": "contentHash",
                            "type": "bytes32"
                        },
                        {
                            "internalType": "uint256",
                            "name": "cycle",
                            "type": "uint256"
                        },
                        {
                            "internalType": "uint256",
                            "name": "endBlock",
                            "type": "uint256"
                        }
                    ],
                    "internalType": "struct Multiplexer.MerkleData",
                    "name": "",
                    "type": "tuple"
                }
            ],
            "stateMutability": "view",
            "type": "function"
        },
        {
            "inputs": [
                {
                    "internalType": "bytes32",
                    "name": "role",
                    "type": "bytes32"
                }
            ],
            "name": "getRoleAdmin",
            "outputs": [
                {
                    "internalType": "bytes32",
                    "name": "",
                    "type": "bytes32"
                }
            ],
            "stateMutability": "view",
            "type": "function"
        },
        {
            "inputs": [
                {
                    "internalType": "bytes32",
                    "name": "role",
                    "type": "bytes32"
                },
                {
                    "internalType": "uint256",
                    "name": "index",
                    "type": "uint256"
                }
            ],
            "name": "getRoleMember",
            "outputs": [
                {
                    "internalType": "address",
                    "name": "",
                    "type": "address"
                }
            ],
            "stateMutability": "view",
            "type": "function"
        },
        {
            "inputs": [
                {
                    "internalType": "bytes32",
                    "name": "role",
                    "type": "bytes32"
                }
            ],
            "name": "getRoleMemberCount",
            "outputs": [
                {
                    "internalType": "uint256",
                    "name": "",
                    "type": "uint256"
                }
            ],
            "stateMutability": "view",
            "type": "function"
        },
        {
            "inputs": [
                {
                    "internalType": "bytes32",
                    "name": "role",
                    "type": "bytes32"
                },
                {
                    "internalType": "address",
                    "name": "account",
                    "type": "address"
                }
            ],
            "name": "grantRole",
            "outputs": [],
            "stateMutability": "nonpayable",
            "type": "function"
        },
        {
            "inputs": [],
            "name": "hasPendingRoot",
            "outputs": [
                {
                    "internalType": "bool",
                    "name": "",
                    "type": "bool"
                }
            ],
            "stateMutability": "view",
            "type": "function"
        },
        {
            "inputs": [
                {
                    "internalType": "bytes32",
                    "name": "role",
                    "type": "bytes32"
                },
                {
                    "internalType": "address",
                    "name": "account",
                    "type": "address"
                }
            ],
            "name": "hasRole",
            "outputs": [
                {
                    "internalType": "bool",
                    "name": "",
                    "type": "bool"
                }
            ],
            "stateMutability": "view",
            "type": "function"
        },
        {
            "inputs": [
                {
                    "internalType": "address",
                    "name": "admin",
                    "type": "address"
                },
                {
                    "internalType": "address",
                    "name": "initialProposer",
                    "type": "address"
                },
                {
                    "internalType": "address",
                    "name": "initialValidator",
                    "type": "address"
                }
            ],
            "name": "initialize",
            "outputs": [],
            "stateMutability": "nonpayable",
            "type": "function"
        },
        {
            "inputs": [],
            "name": "lastProposedMerkleData",
            "outputs": [
                {
                    "internalType": "bytes32",
                    "name": "root",
                    "type": "bytes32"
                },
                {
                    "internalType": "bytes32",
                    "name": "contentHash",
                    "type": "bytes32"
                },
                {
                    "internalType": "uint256",
                    "name": "cycle",
                    "type": "uint256"
                },
                {
                    "internalType": "uint256",
                    "name": "endBlock",
                    "type": "uint256"
                }
            ],
            "stateMutability": "view",
            "type": "function"
        },
        {
            "inputs": [],
            "name": "lastPublishedMerkleData",
            "outputs": [
                {
                    "internalType": "bytes32",
                    "name": "root",
                    "type": "bytes32"
                },
                {
                    "internalType": "bytes32",
                    "name": "contentHash",
                    "type": "bytes32"
                },
                {
                    "internalType": "uint256",
                    "name": "cycle",
                    "type": "uint256"
                },
                {
                    "internalType": "uint256",
                    "name": "endBlock",
                    "type": "uint256"
                }
            ],
            "stateMutability": "view",
            "type": "function"
        },
        {
            "inputs": [],
            "name": "pause",
            "outputs": [],
            "stateMutability": "nonpayable",
            "type": "function"
        },
        {
            "inputs": [],
            "name": "paused",
            "outputs": [
                {
                    "internalType": "bool",
                    "name": "",
                    "type": "bool"
                }
            ],
            "stateMutability": "view",
            "type": "function"
        },
        {
            "inputs": [
                {
                    "internalType": "bytes32",
                    "name": "root",
                    "type": "bytes32"
                },
                {
                    "internalType": "bytes32",
                    "name": "contentHash",
                    "type": "bytes32"
                },
                {
                    "internalType": "uint256",
                    "name": "cycle",
                    "type": "uint256"
                },
                {
                    "internalType": "uint256",
                    "name": "endBlock",
                    "type": "uint256"
                }
            ],
            "name": "proposeRoot",
            "outputs": [],
            "stateMutability": "nonpayable",
            "type": "function"
        },
        {
            "inputs": [
                {
                    "internalType": "bytes32",
                    "name": "role",
                    "type": "bytes32"
                },
                {
                    "internalType": "address",
                    "name": "account",
                    "type": "address"
                }
            ],
            "name": "renounceRole",
            "outputs": [],
            "stateMutability": "nonpayable",
            "type": "function"
        },
        {
            "inputs": [
                {
                    "internalType": "bytes32",
                    "name": "role",
                    "type": "bytes32"
                },
                {
                    "internalType": "address",
                    "name": "account",
                    "type": "address"
                }
            ],
            "name": "revokeRole",
            "outputs": [],
            "stateMutability": "nonpayable",
            "type": "function"
        },
        {
            "inputs": [
                {
                    "internalType": "address",
                    "name": "",
                    "type": "address"
                }
            ],
            "name": "totalClaimed",
            "outputs": [
                {
                    "internalType": "uint256",
                    "name": "",
                    "type": "uint256"
                }
            ],
            "stateMutability": "view",
            "type": "function"
        },
        {
            "inputs": [],
            "name": "unpause",
            "outputs": [],
            "stateMutability": "nonpayable",
            "type": "function"
        }
    ],
    "bytecode": "0x608060405234801561001057600080fd5b506125b8806100206000396000f3fe608060405234801561001057600080fd5b50600436106101c45760003560e01c80639010d07c116100f9578063ca15c87311610097578063d547741f11610071578063d547741f14610383578063e63ab1e914610396578063ef5d9ae81461039e578063fb1bb9de146103b1576101c4565b8063ca15c87314610355578063cbf2218914610368578063d12ed8971461037b576101c4565b8063a2fcfd68116100d3578063a2fcfd6814610311578063b20cd55514610332578063b52086ee1461033a578063c0c53b8b14610342576101c4565b80639010d07c146102d657806391d14854146102f6578063a217fddf14610309576101c4565b80633f4ba83a116101665780635c975abb116101405780635c975abb1461029d5780636f0f3cb3146102a55780638456cb59146102c6578063897347bb146102ce576101c4565b80633f4ba83a1461026a57806342a9b9c6146102725780635634961d1461028a576101c4565b8063248a9ca3116101a2578063248a9ca31461021c5780632f2ff15d1461022f5780632f37a7741461024257806336568abe14610257576101c4565b806307bda9c3146101c95780630c9cbf0e146101de5780630d4202ce14610207575b600080fd5b6101dc6101d7366004611b79565b6103b9565b005b6101f16101ec36600461199e565b6107cd565b6040516101fe9190611f2c565b60405180910390f35b61020f6107ea565b6040516101fe91906124ce565b6101f161022a366004611c64565b61081f565b6101dc61023d366004611c7c565b610834565b61024a61087c565b6040516101fe9190611f21565b6101dc610265366004611c7c565b610896565b6101dc6108d8565b61027a6108ea565b6040516101fe9493929190611f35565b6101dc610298366004611cb6565b6108f9565b61024a610a11565b6102b86102b3366004611ac8565b610a1a565b6040516101fe929190611f50565b6101dc610a65565b61027a610a75565b6102e96102e4366004611ce7565b610a84565b6040516101fe9190611e07565b61024a610304366004611c7c565b610aa5565b6101f1610abd565b61032461031f366004611a17565b610ac2565b6040516101fe929190611e93565b61020f610b97565b6101f1610bcc565b6101dc6103503660046119d2565b610bf0565b6101f1610363366004611c64565b610ce5565b6101dc610376366004611cb6565b610cfc565b6101f1610e13565b6101dc610391366004611c7c565b610e37565b6101f1610e71565b6101f16103ac366004611983565b610e95565b6101f1610ea7565b60655460ff16156103e55760405162461bcd60e51b81526004016103dc906121ae565b60405180910390fd5b609d5483146104065760405162461bcd60e51b81526004016103dc906122b7565b600033848b8b8b8b8b8b604051602001610427989796959493929190611e1b565b60405160208183030381529060405280519060200120905061048083838080602002602001604051908101604052809392919081815260200183836020028082843760009201919091525050609b549150849050610ecb565b61049c5760405162461bcd60e51b81526004016103dc906123e5565b508560005b818110156106375760008b8b838181106104b757fe5b90506020020160208101906104cc9190611983565b905060008a8a848181106104dc57fe5b336000908152609f602090815260408083206001600160a01b0389168452825282205492029390930135935061051491508390610f6a565b9050600081116105365760405162461bcd60e51b81526004016103dc90612315565b336000908152609f602090815260408083206001600160a01b03871684529091529020546105649082610fac565b336000908152609f602090815260408083206001600160a01b0388168452909152902081905582146105a85760405162461bcd60e51b81526004016103dc906122de565b6105bc6001600160a01b0384163383610fd1565b878e8e868181106105c957fe5b90506020020160208101906105de9190611983565b6001600160a01b0316336001600160a01b03167f6f9c9826be5976f3f82a3490c52a83328ce2ec7be9e62dcb39c26da5148d7c76844243604051610624939291906124f9565b60405180910390a45050506001016104a1565b508460005b818110156107bf5760008c8c83860181811061065457fe5b90506020020160208101906106699190611983565b9050600089898481811061067957fe5b336000908152609f602090815260408083206001600160a01b038916845282528220549202939093013593506106b191508390610f6a565b9050600081116106d35760405162461bcd60e51b81526004016103dc90612315565b336000908152609f602090815260408083206001600160a01b03871684529091529020546107019082610fac565b336000908152609f602090815260408083206001600160a01b0388168452909152902081905582146107455760405162461bcd60e51b81526004016103dc906122de565b61076433610753858461102c565b6001600160a01b0386169190610fd1565b88836001600160a01b0316336001600160a01b03167f6f9c9826be5976f3f82a3490c52a83328ce2ec7be9e62dcb39c26da5148d7c768442436040516107ac939291906124f9565b60405180910390a450505060010161063c565b505050505050505050505050565b609f60209081526000928352604080842090915290825290205481565b6107f2611903565b50604080516080810182526097548152609854602082015260995491810191909152609a54606082015290565b60009081526033602052604090206002015490565b6000828152603360205260409020600201546108529061030461112d565b61086e5760405162461bcd60e51b81526004016103dc90611fc7565b6108788282611131565b5050565b609d5460009061088d906001610fac565b60995414905090565b61089e61112d565b6001600160a01b0316816001600160a01b0316146108ce5760405162461bcd60e51b81526004016103dc9061247f565b610878828261119a565b6108e0611203565b6108e8611249565b565b609754609854609954609a5484565b60655460ff161561091c5760405162461bcd60e51b81526004016103dc906121ae565b6109246112b5565b609d54610932906001610fac565b82146109505760405162461bcd60e51b81526004016103dc9061240c565b609a5481116109715760405162461bcd60e51b81526004016103dc9061239b565b601e61097d4383610f6a565b101561099b5760405162461bcd60e51b81526004016103dc90612044565b6040805160808101825285815260208101859052808201849052606001829052609785905560988490556099839055609a829055517f4f5e6379f7e52c1faee63fa2c3adaf4a671bdb2b34c1a1a3f79b6681bb255e7f90610a03908490879087908690611f35565b60405180910390a150505050565b60655460ff1690565b6060600083838b8b8b8b8b8b604051602001610a3d989796959493929190611e1b565b6040516020818303038152906040529150818051906020012090509850989650505050505050565b610a6d6112fb565b6108e8611325565b609b54609c54609d54609e5484565b6000828152603360205260408120610a9c908361137e565b90505b92915050565b6000828152603360205260408120610a9c908361138a565b600081565b6060806060835167ffffffffffffffff81118015610adf57600080fd5b50604051908082528060200260200182016040528015610b09578160200160208202803683370190505b50905060005b8451811015610b89576001600160a01b0386166000908152609f602052604081208651909190879084908110610b4157fe5b60200260200101516001600160a01b03166001600160a01b0316815260200190815260200160002054828281518110610b7657fe5b6020908102919091010152600101610b0f565b5083925090505b9250929050565b610b9f611903565b5060408051608081018252609b548152609c546020820152609d5491810191909152609e54606082015290565b7f64ba955c8b5b448b2248fa0532807b98b1b75941bbd2184ca97df4881a13b44881565b600054610100900460ff1680610c095750610c0961139f565b80610c17575060005460ff16155b610c335760405162461bcd60e51b81526004016103dc90612208565b600054610100900460ff16158015610c5e576000805460ff1961ff0019909116610100171660011790555b610c666113a5565b610c6e611438565b610c7960008561086e565b610ca37f64ba955c8b5b448b2248fa0532807b98b1b75941bbd2184ca97df4881a13b4488461086e565b610ccd7f2650881bae229064abd4495ca56feba9ce572f8653a1aad517d81f9e3cf174c08361086e565b8015610cdf576000805461ff00191690555b50505050565b6000818152603360205260408120610a9f906114c4565b60655460ff1615610d1f5760405162461bcd60e51b81526004016103dc906121ae565b610d276114cf565b6097548414610d485760405162461bcd60e51b81526004016103dc906120f0565b6098548314610d695760405162461bcd60e51b81526004016103dc906121d8565b6099548214610d8a5760405162461bcd60e51b81526004016103dc9061240c565b609a548114610dab5760405162461bcd60e51b81526004016103dc90612280565b6040805160808101825285815260208101859052808201849052606001829052609b859055609c849055609d839055609e829055517f3a7874586428776b9a79c3cec1d8c888d794976d633155ea9f3f7b0cb332094c90610a03908490879087908690611f35565b7f2650881bae229064abd4495ca56feba9ce572f8653a1aad517d81f9e3cf174c081565b600082815260336020526040902060020154610e559061030461112d565b6108ce5760405162461bcd60e51b81526004016103dc9061215e565b7f65d7a28e3265b37a6474929f336521b332c1681b933f6cb9f3376673440d862a81565b60a06020526000908152604090205481565b7f427da25fe773164f88948d3e215c94b6554e2ed5e5f203a821c9f2f6131cf75a81565b600081815b8551811015610f5d576000868281518110610ee757fe5b60200260200101519050808311610f28578281604051602001610f0b929190611ddd565b604051602081830303815290604052805190602001209250610f54565b8083604051602001610f3b929190611ddd565b6040516020818303038152906040528051906020012092505b50600101610ed0565b50831490505b9392505050565b6000610a9c83836040518060400160405280601e81526020017f536166654d6174683a207375627472616374696f6e206f766572666c6f770000815250611515565b600082820183811015610a9c5760405162461bcd60e51b81526004016103dc906120b9565b6110278363a9059cbb60e01b8484604051602401610ff0929190611e7a565b60408051601f198184030181529190526020810180516001600160e01b03166001600160e01b031990931692909217909152611541565b505050565b600080836001600160a01b03166318160ddd6040518163ffffffff1660e01b815260040160206040518083038186803b15801561106857600080fd5b505afa15801561107c573d6000803e3d6000fd5b505050506040513d601f19601f820116820180604052508101906110a09190611d08565b846001600160a01b0316633a98ef396040518163ffffffff1660e01b815260040160206040518083038186803b1580156110d957600080fd5b505afa1580156110ed573d6000803e3d6000fd5b505050506040513d601f19601f820116820180604052508101906111119190611d08565b8161111857fe5b04905080838161112457fe5b04949350505050565b3390565b600082815260336020526040902061114990826115d0565b156108785761115661112d565b6001600160a01b0316816001600160a01b0316837f2f8788117e7eff1d82e926ec794901d17c78024a50270940304540a733656f0d60405160405180910390a45050565b60008281526033602052604090206111b290826115e5565b15610878576111bf61112d565b6001600160a01b0316816001600160a01b0316837ff6391f5c32d9c69d2a47ea670b442974b53935d1edc7fd64eb21e047a839171b60405160405180910390a45050565b61122d7f427da25fe773164f88948d3e215c94b6554e2ed5e5f203a821c9f2f6131cf75a33610aa5565b6108e85760405162461bcd60e51b81526004016103dc9061233e565b60655460ff1661126b5760405162461bcd60e51b81526004016103dc90612016565b6065805460ff191690557f5db9ee0a495bf2e6ff9c91a7834c1ba4fdd244a5e8aa4e537bd38aeae4b073aa61129e61112d565b6040516112ab9190611e07565b60405180910390a1565b6112df7f64ba955c8b5b448b2248fa0532807b98b1b75941bbd2184ca97df4881a13b44833610aa5565b6108e85760405162461bcd60e51b81526004016103dc90612256565b61122d7f65d7a28e3265b37a6474929f336521b332c1681b933f6cb9f3376673440d862a33610aa5565b60655460ff16156113485760405162461bcd60e51b81526004016103dc906121ae565b6065805460ff191660011790557f62e78cea01bee320cd4e420270b5ea74000d11b0c9f74754ebdbfc544b05a25861129e61112d565b6000610a9c83836115fa565b6000610a9c836001600160a01b03841661163f565b303b1590565b600054610100900460ff16806113be57506113be61139f565b806113cc575060005460ff16155b6113e85760405162461bcd60e51b81526004016103dc90612208565b600054610100900460ff16158015611413576000805460ff1961ff0019909116610100171660011790555b61141b611657565b611423611657565b8015611435576000805461ff00191690555b50565b600054610100900460ff1680611451575061145161139f565b8061145f575060005460ff16155b61147b5760405162461bcd60e51b81526004016103dc90612208565b600054610100900460ff161580156114a6576000805460ff1961ff0019909116610100171660011790555b6065805460ff191690558015611435576000805461ff001916905550565b6000610a9f826116d8565b6114f97f2650881bae229064abd4495ca56feba9ce572f8653a1aad517d81f9e3cf174c033610aa5565b6108e85760405162461bcd60e51b81526004016103dc9061208e565b600081848411156115395760405162461bcd60e51b81526004016103dc9190611f72565b505050900390565b6060611596826040518060400160405280602081526020017f5361666545524332303a206c6f772d6c6576656c2063616c6c206661696c6564815250856001600160a01b03166116dc9092919063ffffffff16565b80519091501561102757808060200190518101906115b49190611c44565b6110275760405162461bcd60e51b81526004016103dc90612435565b6000610a9c836001600160a01b0384166116f3565b6000610a9c836001600160a01b03841661173d565b8154600090821061161d5760405162461bcd60e51b81526004016103dc90611f85565b82600001828154811061162c57fe5b9060005260206000200154905092915050565b60009081526001919091016020526040902054151590565b600054610100900460ff1680611670575061167061139f565b8061167e575060005460ff16155b61169a5760405162461bcd60e51b81526004016103dc90612208565b600054610100900460ff16158015611423576000805460ff1961ff0019909116610100171660011790558015611435576000805461ff001916905550565b5490565b60606116eb8484600085611803565b949350505050565b60006116ff838361163f565b61173557508154600181810184556000848152602080822090930184905584548482528286019093526040902091909155610a9f565b506000610a9f565b600081815260018301602052604081205480156117f9578354600019808301919081019060009087908390811061177057fe5b906000526020600020015490508087600001848154811061178d57fe5b6000918252602080832090910192909255828152600189810190925260409020908401905586548790806117bd57fe5b60019003818190600052602060002001600090559055866001016000878152602001908152602001600020600090556001945050505050610a9f565b6000915050610a9f565b6060824710156118255760405162461bcd60e51b81526004016103dc90612118565b61182e856118c4565b61184a5760405162461bcd60e51b81526004016103dc90612364565b60006060866001600160a01b031685876040516118679190611deb565b60006040518083038185875af1925050503d80600081146118a4576040519150601f19603f3d011682016040523d82523d6000602084013e6118a9565b606091505b50915091506118b98282866118ca565b979650505050505050565b3b151590565b606083156118d9575081610f63565b8251156118e95782518084602001fd5b8160405162461bcd60e51b81526004016103dc9190611f72565b60408051608081018252600080825260208201819052918101829052606081019190915290565b80356001600160a01b0381168114610a9f57600080fd5b60008083601f840112611952578182fd5b50813567ffffffffffffffff811115611969578182fd5b6020830191508360208083028501011115610b9057600080fd5b600060208284031215611994578081fd5b610a9c838361192a565b600080604083850312156119b0578081fd5b6119ba848461192a565b91506119c9846020850161192a565b90509250929050565b6000806000606084860312156119e6578081fd5b6119f0858561192a565b92506119ff856020860161192a565b9150611a0e856040860161192a565b90509250925092565b60008060408385031215611a29578182fd5b611a33848461192a565b915060208084013567ffffffffffffffff811115611a4f578283fd5b8401601f81018613611a5f578283fd5b8035611a72611a6d82612536565b61250f565b81815283810190838501858402850186018a1015611a8e578687fd5b8694505b83851015611ab857611aa48a8261192a565b835260019490940193918501918501611a92565b5080955050505050509250929050565b60008060008060008060008060a0898b031215611ae3578384fd5b883567ffffffffffffffff80821115611afa578586fd5b611b068c838d01611941565b909a50985060208b0135915080821115611b1e578586fd5b611b2a8c838d01611941565b909850965060408b0135915080821115611b42578586fd5b50611b4f8b828c01611941565b9095509350611b6390508a60608b0161192a565b9150608089013590509295985092959890939650565b600080600080600080600080600060a08a8c031215611b96578081fd5b893567ffffffffffffffff80821115611bad578283fd5b611bb98d838e01611941565b909b50995060208c0135915080821115611bd1578283fd5b611bdd8d838e01611941565b909950975060408c0135915080821115611bf5578283fd5b611c018d838e01611941565b909750955060608c0135945060808c0135915080821115611c20578283fd5b50611c2d8c828d01611941565b915080935050809150509295985092959850929598565b600060208284031215611c55578081fd5b81518015158114610a9c578182fd5b600060208284031215611c75578081fd5b5035919050565b60008060408385031215611c8e578182fd5b8235915060208301356001600160a01b0381168114611cab578182fd5b809150509250929050565b60008060008060808587031215611ccb578384fd5b5050823594602084013594506040840135936060013592509050565b60008060408385031215611cf9578182fd5b50508035926020909101359150565b600060208284031215611d19578081fd5b5051919050565b815260200190565b6001600160a01b03169052565b60008284526020808501945082825b85811015611d72578183016001600160a01b03611d61828561192a565b168852968301969150600101611d44565b509495945050505050565b81835260006001600160fb1b03831115611d95578081fd5b6020830280836020870137939093016020019283525090919050565b60008151808452611dc9816020860160208601612556565b601f01601f19169290920160200192915050565b918252602082015260400190565b60008251611dfd818460208701612556565b9190910192915050565b6001600160a01b0391909116815260200190565b600060018060a01b038a16825288602083015260a06040830152611e4360a08301888a611d35565b8281036060840152611e56818789611d7d565b90508281036080840152611e6b818587611d7d565b9b9a5050505050505050505050565b6001600160a01b03929092168252602082015260400190565b604080825283519082018190526000906020906060840190828701845b82811015611ed357611ec3848351611d28565b9284019290840190600101611eb0565b50505083810382850152808551611eea8184611f2c565b91508387019250845b81811015611f1457611f06838551611d20565b938501939250600101611ef3565b5090979650505050505050565b901515815260200190565b90815260200190565b93845260208401929092526040830152606082015260800190565b600060408252611f636040830185611db1565b90508260208301529392505050565b600060208252610a9c6020830184611db1565b60208082526022908201527f456e756d657261626c655365743a20696e646578206f7574206f6620626f756e604082015261647360f01b606082015260800190565b6020808252602f908201527f416363657373436f6e74726f6c3a2073656e646572206d75737420626520616e60408201526e0818591b5a5b881d1bc819dc985b9d608a1b606082015260800190565b60208082526014908201527314185d5cd8589b194e881b9bdd081c185d5cd95960621b604082015260600190565b6020808252602a908201527f456e64626c6f636b206d757374206265206174206c6561737420333020626c6f60408201526918dadcc818995a1a5b9960b21b606082015260800190565b60208082526011908201527037b7363ca937b7ba2b30b634b230ba37b960791b604082015260600190565b6020808252601b908201527f536166654d6174683a206164646974696f6e206f766572666c6f770000000000604082015260600190565b6020808252600e908201526d125b98dbdc9c9958dd081c9bdbdd60921b604082015260600190565b60208082526026908201527f416464726573733a20696e73756666696369656e742062616c616e636520666f6040820152651c8818d85b1b60d21b606082015260800190565b60208082526030908201527f416363657373436f6e74726f6c3a2073656e646572206d75737420626520616e60408201526f2061646d696e20746f207265766f6b6560801b606082015260800190565b60208082526010908201526f14185d5cd8589b194e881c185d5cd95960821b604082015260600190565b602080825260169082015275092dcc6dee4e4cac6e840c6dedce8cadce840d0c2e6d60531b604082015260600190565b6020808252602e908201527f496e697469616c697a61626c653a20636f6e747261637420697320616c72656160408201526d191e481a5b9a5d1a585b1a5e995960921b606082015260800190565b60208082526010908201526f37b7363ca937b7ba283937b837b9b2b960811b604082015260600190565b60208082526019908201527f496e636f7272656374206379636c6520656e6420626c6f636b00000000000000604082015260600190565b6020808252600d908201526c496e76616c6964206379636c6560981b604082015260600190565b60208082526017908201527f436c61696d656420616d6f756e74206d69736d61746368000000000000000000604082015260600190565b6020808252600f908201526e45786365737369766520636c61696d60881b604082015260600190565b6020808252600c908201526b37b7363ca3bab0b93234b0b760a11b604082015260600190565b6020808252601d908201527f416464726573733a2063616c6c20746f206e6f6e2d636f6e7472616374000000604082015260600190565b6020808252602a908201527f43616e6e6f74207075626c69736820726f6f742077697468206561726c69657260408201526920656e6420626c6f636b60b01b606082015260800190565b6020808252600d908201526c24b73b30b634b210383937b7b360991b604082015260600190565b6020808252600f908201526e496e636f7272656374206379636c6560881b604082015260600190565b6020808252602a908201527f5361666545524332303a204552433230206f7065726174696f6e20646964206e6040820152691bdd081cdd58d8d9595960b21b606082015260800190565b6020808252602f908201527f416363657373436f6e74726f6c3a2063616e206f6e6c792072656e6f756e636560408201526e103937b632b9903337b91039b2b63360891b606082015260800190565b8151815260208083015190820152604080830151908201526060918201519181019190915260800190565b9283526020830191909152604082015260600190565b60405181810167ffffffffffffffff8111828210171561252e57600080fd5b604052919050565b600067ffffffffffffffff82111561254c578081fd5b5060209081020190565b60005b83811015612571578181015183820152602001612559565b83811115610cdf575050600091015256fea2646970667358221220cc1f8c6672b4889da9d9968d02f6eae8bd1030ea10c2c6d6aba6f61ae187690764736f6c634300060c0033",
    "linkReferences": {},
    "deployedLinkReferences": {}
}